{
  "contractName": "Auction",
  "abi": [
    {
      "inputs": [],
      "stateMutability": "nonpayable",
      "type": "constructor"
    },
    {
      "anonymous": false,
      "inputs": [
        {
          "indexed": true,
          "internalType": "address",
          "name": "_highestBidder",
          "type": "address"
        },
        {
          "indexed": false,
          "internalType": "uint256",
          "name": "_highestBid",
          "type": "uint256"
        }
      ],
      "name": "LogBid",
      "type": "event"
    },
    {
      "anonymous": false,
      "inputs": [
        {
          "indexed": true,
          "internalType": "address",
          "name": "_withdrawer",
          "type": "address"
        },
        {
          "indexed": false,
          "internalType": "uint256",
          "name": "amount",
          "type": "uint256"
        }
      ],
      "name": "LogWithdrawal",
      "type": "event"
    },
    {
      "inputs": [],
      "name": "newWater",
      "outputs": [
        {
          "internalType": "uint256",
          "name": "id",
          "type": "uint256"
        },
        {
          "internalType": "address",
          "name": "owner",
          "type": "address"
        },
        {
          "internalType": "bool",
          "name": "active",
          "type": "bool"
        },
        {
          "internalType": "string",
          "name": "waterSource",
          "type": "string"
        },
        {
          "internalType": "string",
          "name": "waterLocation",
          "type": "string"
        },
        {
          "internalType": "uint256",
          "name": "amount",
          "type": "uint256"
        },
        {
          "internalType": "uint256",
          "name": "price",
          "type": "uint256"
        },
        {
          "internalType": "bool",
          "name": "forSale",
          "type": "bool"
        }
      ],
      "stateMutability": "view",
      "type": "function",
      "constant": true
    },
    {
      "inputs": [
        {
          "internalType": "address",
          "name": "",
          "type": "address"
        }
      ],
      "name": "owners",
      "outputs": [
        {
          "internalType": "uint256",
          "name": "",
          "type": "uint256"
        }
      ],
      "stateMutability": "view",
      "type": "function",
      "constant": true
    },
    {
      "inputs": [
        {
          "internalType": "address",
          "name": "",
          "type": "address"
        },
        {
          "internalType": "uint256",
          "name": "",
          "type": "uint256"
        }
      ],
      "name": "ownership",
      "outputs": [
        {
          "internalType": "uint256",
          "name": "id",
          "type": "uint256"
        },
        {
          "internalType": "address",
          "name": "owner",
          "type": "address"
        },
        {
          "internalType": "bool",
          "name": "active",
          "type": "bool"
        },
        {
          "internalType": "string",
          "name": "waterSource",
          "type": "string"
        },
        {
          "internalType": "string",
          "name": "waterLocation",
          "type": "string"
        },
        {
          "internalType": "uint256",
          "name": "amount",
          "type": "uint256"
        },
        {
          "internalType": "uint256",
          "name": "price",
          "type": "uint256"
        },
        {
          "internalType": "bool",
          "name": "forSale",
          "type": "bool"
        }
      ],
      "stateMutability": "view",
      "type": "function",
      "constant": true
    },
    {
      "inputs": [],
      "name": "rightsCount",
      "outputs": [
        {
          "internalType": "uint256",
          "name": "",
          "type": "uint256"
        }
      ],
      "stateMutability": "view",
      "type": "function",
      "constant": true
    },
    {
      "inputs": [
        {
          "internalType": "uint256",
          "name": "",
          "type": "uint256"
        }
      ],
      "name": "water",
      "outputs": [
        {
          "internalType": "uint256",
          "name": "id",
          "type": "uint256"
        },
        {
          "internalType": "address",
          "name": "owner",
          "type": "address"
        },
        {
          "internalType": "bool",
          "name": "active",
          "type": "bool"
        },
        {
          "internalType": "string",
          "name": "waterSource",
          "type": "string"
        },
        {
          "internalType": "string",
          "name": "waterLocation",
          "type": "string"
        },
        {
          "internalType": "uint256",
          "name": "amount",
          "type": "uint256"
        },
        {
          "internalType": "uint256",
          "name": "price",
          "type": "uint256"
        },
        {
          "internalType": "bool",
          "name": "forSale",
          "type": "bool"
        }
      ],
      "stateMutability": "view",
      "type": "function",
      "constant": true
    },
    {
      "inputs": [
        {
          "internalType": "uint256",
          "name": "id",
          "type": "uint256"
        }
      ],
      "name": "getOwnerAssets",
      "outputs": [
        {
          "components": [
            {
              "internalType": "uint256",
              "name": "id",
              "type": "uint256"
            },
            {
              "internalType": "address",
              "name": "owner",
              "type": "address"
            },
            {
              "internalType": "bool",
              "name": "active",
              "type": "bool"
            },
            {
              "internalType": "string",
              "name": "waterSource",
              "type": "string"
            },
            {
              "internalType": "string",
              "name": "waterLocation",
              "type": "string"
            },
            {
              "internalType": "uint256",
              "name": "amount",
              "type": "uint256"
            },
            {
              "internalType": "uint256",
              "name": "price",
              "type": "uint256"
            },
            {
              "internalType": "bool",
              "name": "forSale",
              "type": "bool"
            }
          ],
          "internalType": "struct Auction.Water",
          "name": "",
          "type": "tuple"
        }
      ],
      "stateMutability": "view",
      "type": "function",
      "constant": true
    },
    {
      "inputs": [],
      "name": "getOwnerNumber",
      "outputs": [
        {
          "internalType": "uint256",
          "name": "",
          "type": "uint256"
        }
      ],
      "stateMutability": "view",
      "type": "function",
      "constant": true
    },
    {
      "inputs": [
        {
          "internalType": "string",
          "name": "source",
          "type": "string"
        },
        {
          "internalType": "string",
          "name": "loc",
          "type": "string"
        },
        {
          "internalType": "uint256",
          "name": "amount",
          "type": "uint256"
        },
        {
          "internalType": "uint256",
          "name": "price",
          "type": "uint256"
        }
      ],
      "name": "addNewAsset",
      "outputs": [],
      "stateMutability": "nonpayable",
      "type": "function"
    },
    {
      "inputs": [],
      "name": "bid",
      "outputs": [
        {
          "internalType": "bool",
          "name": "",
          "type": "bool"
        }
      ],
      "stateMutability": "payable",
      "type": "function",
      "payable": true
    },
    {
      "inputs": [
        {
          "internalType": "uint256",
          "name": "index",
          "type": "uint256"
        }
      ],
      "name": "getRight",
      "outputs": [
        {
          "components": [
            {
              "internalType": "uint256",
              "name": "id",
              "type": "uint256"
            },
            {
              "internalType": "address",
              "name": "owner",
              "type": "address"
            },
            {
              "internalType": "bool",
              "name": "active",
              "type": "bool"
            },
            {
              "internalType": "string",
              "name": "waterSource",
              "type": "string"
            },
            {
              "internalType": "string",
              "name": "waterLocation",
              "type": "string"
            },
            {
              "internalType": "uint256",
              "name": "amount",
              "type": "uint256"
            },
            {
              "internalType": "uint256",
              "name": "price",
              "type": "uint256"
            },
            {
              "internalType": "bool",
              "name": "forSale",
              "type": "bool"
            }
          ],
          "internalType": "struct Auction.Water",
          "name": "",
          "type": "tuple"
        }
      ],
      "stateMutability": "view",
      "type": "function",
      "constant": true
    },
    {
      "inputs": [],
      "name": "getSaleCount",
      "outputs": [
        {
          "internalType": "uint256",
          "name": "",
          "type": "uint256"
        }
      ],
      "stateMutability": "view",
      "type": "function",
      "constant": true
    },
    {
      "inputs": [
        {
          "internalType": "uint256",
          "name": "id",
          "type": "uint256"
        },
        {
          "internalType": "uint256",
          "name": "price",
          "type": "uint256"
        }
      ],
      "name": "listForSale",
      "outputs": [],
      "stateMutability": "nonpayable",
      "type": "function"
    },
    {
      "inputs": [
        {
          "internalType": "uint256",
          "name": "id",
          "type": "uint256"
        }
      ],
      "name": "transferOwnership",
      "outputs": [],
      "stateMutability": "nonpayable",
      "type": "function"
    },
    {
      "inputs": [],
      "name": "fetchHighestBid",
      "outputs": [
        {
          "internalType": "uint256",
          "name": "id",
          "type": "uint256"
        }
      ],
      "stateMutability": "view",
      "type": "function",
      "constant": true
    },
    {
      "inputs": [
        {
          "internalType": "uint256",
          "name": "index",
          "type": "uint256"
        }
      ],
      "name": "getOwner",
      "outputs": [
        {
          "internalType": "address",
          "name": "",
          "type": "address"
        }
      ],
      "stateMutability": "view",
      "type": "function",
      "constant": true
    }
  ],
  "bytecode": "0x6080604052600080553480156200001557600080fd5b506040518061010001604052806000815260200173c2ab56188cdfc64f19fb9de3612ff50f11b45d2273ffffffffffffffffffffffffffffffffffffffff1681526020016001151581526020016040518060400160405280600881526020017f436f6c6f7261646f00000000000000000000000000000000000000000000000081525081526020016040518060400160405280600e81526020017f4e6f72746865726e2057617465720000000000000000000000000000000000008152508152602001609681526020016000815260200160001515815250600160008081526020019081526020016000206000820151816000015560208201518160010160006101000a81548173ffffffffffffffffffffffffffffffffffffffff021916908373ffffffffffffffffffffffffffffffffffffffff16021790555060408201518160010160146101000a81548160ff02191690831515021790555060608201518160020190805190602001906200018f929190620014f4565b506080820151816003019080519060200190620001ae929190620014f4565b5060a0820151816004015560c0820151816005015560e08201518160060160006101000a81548160ff021916908315150217905550905050600080815480929190620001fa90620015dd565b9190505550604051806101000160405280600181526020013373ffffffffffffffffffffffffffffffffffffffff1681526020016001151581526020016040518060400160405280600c81526020017f4269672054686f6d70736f6e000000000000000000000000000000000000000081525081526020016040518060400160405280600e81526020017f4e6f72746865726e205761746572000000000000000000000000000000000000815250815260200161011381526020016101f481526020016001151581525060016000600181526020019081526020016000206000820151816000015560208201518160010160006101000a81548173ffffffffffffffffffffffffffffffffffffffff021916908373ffffffffffffffffffffffffffffffffffffffff16021790555060408201518160010160146101000a81548160ff021916908315150217905550606082015181600201908051906020019062000367929190620014f4565b50608082015181600301908051906020019062000386929190620014f4565b5060a0820151816004015560c0820151816005015560e08201518160060160006101000a81548160ff021916908315150217905550905050600080815480929190620003d290620015dd565b91905055506040518061010001604052806002815260200173c2ab56188cdfc64f19fb9de3612ff50f11b45d2273ffffffffffffffffffffffffffffffffffffffff1681526020016001151581526020016040518060400160405280600c81526020017f536f75746820506c61747465000000000000000000000000000000000000000081525081526020016040518060400160405280600e81526020017f4e6f72746865726e205761746572000000000000000000000000000000000000815250815260200160198152602001603281526020016001151581525060016000600281526020019081526020016000206000820151816000015560208201518160010160006101000a81548173ffffffffffffffffffffffffffffffffffffffff021916908373ffffffffffffffffffffffffffffffffffffffff16021790555060408201518160010160146101000a81548160ff021916908315150217905550606082015181600201908051906020019062000551929190620014f4565b50608082015181600301908051906020019062000570929190620014f4565b5060a0820151816004015560c0820151816005015560e08201518160060160006101000a81548160ff021916908315150217905550905050600080815480929190620005bc90620015dd565b91905055506040518061010001604052806003815260200173c2ab56188cdfc64f19fb9de3612ff50f11b45d2273ffffffffffffffffffffffffffffffffffffffff1681526020016001151581526020016040518060400160405280600581526020017f477265656e00000000000000000000000000000000000000000000000000000081525081526020016040518060400160405280600e81526020017f4e6f72746865726e205761746572000000000000000000000000000000000000815250815260200161015e81526020016105dc81526020016001151581525060016000600381526020019081526020016000206000820151816000015560208201518160010160006101000a81548173ffffffffffffffffffffffffffffffffffffffff021916908373ffffffffffffffffffffffffffffffffffffffff16021790555060408201518160010160146101000a81548160ff02191690831515021790555060608201518160020190805190602001906200073d929190620014f4565b5060808201518160030190805190602001906200075c929190620014f4565b5060a0820151816004015560c0820151816005015560e08201518160060160006101000a81548160ff021916908315150217905550905050600080815480929190620007a890620015dd565b9190505550604051806101000160405280600481526020013373ffffffffffffffffffffffffffffffffffffffff1681526020016001151581526020016040518060400160405280600581526020017f59616d706100000000000000000000000000000000000000000000000000000081525081526020016040518060400160405280600e81526020017f4e6f72746865726e205761746572000000000000000000000000000000000000815250815260200161012c8152602001600081526020016000151581525060016000600481526020019081526020016000206000820151816000015560208201518160010160006101000a81548173ffffffffffffffffffffffffffffffffffffffff021916908373ffffffffffffffffffffffffffffffffffffffff16021790555060408201518160010160146101000a81548160ff021916908315150217905550606082015181600201908051906020019062000914929190620014f4565b50608082015181600301908051906020019062000933929190620014f4565b5060a0820151816004015560c0820151816005015560e08201518160060160006101000a81548160ff0219169083151502179055509050506000808154809291906200097f90620015dd565b91905055506002600360003373ffffffffffffffffffffffffffffffffffffffff1673ffffffffffffffffffffffffffffffffffffffff16815260200190815260200160002081905550600380600073c2ab56188cdfc64f19fb9de3612ff50f11b45d2273ffffffffffffffffffffffffffffffffffffffff1673ffffffffffffffffffffffffffffffffffffffff168152602001908152602001600020819055506002600073c2ab56188cdfc64f19fb9de3612ff50f11b45d2273ffffffffffffffffffffffffffffffffffffffff1673ffffffffffffffffffffffffffffffffffffffff1681526020019081526020016000206040518061010001604052806000815260200173c2ab56188cdfc64f19fb9de3612ff50f11b45d2273ffffffffffffffffffffffffffffffffffffffff1681526020016001151581526020016040518060400160405280600881526020017f436f6c6f7261646f00000000000000000000000000000000000000000000000081525081526020016040518060400160405280600e81526020017f4e6f72746865726e205761746572000000000000000000000000000000000000815250815260200160968152602001600081526020016000151581525090806001815401808255809150506001900390600052602060002090600702016000909190919091506000820151816000015560208201518160010160006101000a81548173ffffffffffffffffffffffffffffffffffffffff021916908373ffffffffffffffffffffffffffffffffffffffff16021790555060408201518160010160146101000a81548160ff021916908315150217905550606082015181600201908051906020019062000c03929190620014f4565b50608082015181600301908051906020019062000c22929190620014f4565b5060a0820151816004015560c0820151816005015560e08201518160060160006101000a81548160ff0219169083151502179055505050600260003373ffffffffffffffffffffffffffffffffffffffff1673ffffffffffffffffffffffffffffffffffffffff168152602001908152602001600020604051806101000160405280600181526020013373ffffffffffffffffffffffffffffffffffffffff1681526020016001151581526020016040518060400160405280600c81526020017f4269672054686f6d70736f6e000000000000000000000000000000000000000081525081526020016040518060400160405280600e81526020017f4e6f72746865726e205761746572000000000000000000000000000000000000815250815260200161011381526020016101f481526020016001151581525090806001815401808255809150506001900390600052602060002090600702016000909190919091506000820151816000015560208201518160010160006101000a81548173ffffffffffffffffffffffffffffffffffffffff021916908373ffffffffffffffffffffffffffffffffffffffff16021790555060408201518160010160146101000a81548160ff021916908315150217905550606082015181600201908051906020019062000e15929190620014f4565b50608082015181600301908051906020019062000e34929190620014f4565b5060a0820151816004015560c0820151816005015560e08201518160060160006101000a81548160ff02191690831515021790555050506002600073c2ab56188cdfc64f19fb9de3612ff50f11b45d2273ffffffffffffffffffffffffffffffffffffffff1673ffffffffffffffffffffffffffffffffffffffff1681526020019081526020016000206040518061010001604052806002815260200173c2ab56188cdfc64f19fb9de3612ff50f11b45d2273ffffffffffffffffffffffffffffffffffffffff1681526020016001151581526020016040518060400160405280600c81526020017f536f75746820506c61747465000000000000000000000000000000000000000081525081526020016040518060400160405280600e81526020017f4e6f72746865726e205761746572000000000000000000000000000000000000815250815260200160198152602001603281526020016001151581525090806001815401808255809150506001900390600052602060002090600702016000909190919091506000820151816000015560208201518160010160006101000a81548173ffffffffffffffffffffffffffffffffffffffff021916908373ffffffffffffffffffffffffffffffffffffffff16021790555060408201518160010160146101000a81548160ff02191690831515021790555060608201518160020190805190602001906200104d929190620014f4565b5060808201518160030190805190602001906200106c929190620014f4565b5060a0820151816004015560c0820151816005015560e08201518160060160006101000a81548160ff02191690831515021790555050506002600073c2ab56188cdfc64f19fb9de3612ff50f11b45d2273ffffffffffffffffffffffffffffffffffffffff1673ffffffffffffffffffffffffffffffffffffffff1681526020019081526020016000206040518061010001604052806003815260200173c2ab56188cdfc64f19fb9de3612ff50f11b45d2273ffffffffffffffffffffffffffffffffffffffff1681526020016001151581526020016040518060400160405280600581526020017f477265656e00000000000000000000000000000000000000000000000000000081525081526020016040518060400160405280600e81526020017f4e6f72746865726e205761746572000000000000000000000000000000000000815250815260200161015e81526020016105dc81526020016001151581525090806001815401808255809150506001900390600052602060002090600702016000909190919091506000820151816000015560208201518160010160006101000a81548173ffffffffffffffffffffffffffffffffffffffff021916908373ffffffffffffffffffffffffffffffffffffffff16021790555060408201518160010160146101000a81548160ff021916908315150217905550606082015181600201908051906020019062001287929190620014f4565b506080820151816003019080519060200190620012a6929190620014f4565b5060a0820151816004015560c0820151816005015560e08201518160060160006101000a81548160ff0219169083151502179055505050600260003373ffffffffffffffffffffffffffffffffffffffff1673ffffffffffffffffffffffffffffffffffffffff168152602001908152602001600020604051806101000160405280600481526020013373ffffffffffffffffffffffffffffffffffffffff1681526020016001151581526020016040518060400160405280600581526020017f59616d706100000000000000000000000000000000000000000000000000000081525081526020016040518060400160405280600e81526020017f4e6f72746865726e205761746572000000000000000000000000000000000000815250815260200161012c8152602001600081526020016000151581525090806001815401808255809150506001900390600052602060002090600702016000909190919091506000820151816000015560208201518160010160006101000a81548173ffffffffffffffffffffffffffffffffffffffff021916908373ffffffffffffffffffffffffffffffffffffffff16021790555060408201518160010160146101000a81548160ff021916908315150217905550606082015181600201908051906020019062001498929190620014f4565b506080820151816003019080519060200190620014b7929190620014f4565b5060a0820151816004015560c0820151816005015560e08201518160060160006101000a81548160ff021916908315150217905550505062001690565b82805462001502906200165a565b90600052602060002090601f01602090048101928262001526576000855562001572565b82601f106200154157805160ff191683800117855562001572565b8280016001018555821562001572579182015b828111156200157157825182559160200191906001019062001554565b5b50905062001581919062001585565b5090565b5b80821115620015a057600081600090555060010162001586565b5090565b7f4e487b7100000000000000000000000000000000000000000000000000000000600052601160045260246000fd5b6000819050919050565b6000620015ea82620015d3565b91507fffffffffffffffffffffffffffffffffffffffffffffffffffffffffffffffff82141562001620576200161f620015a4565b5b600182019050919050565b7f4e487b7100000000000000000000000000000000000000000000000000000000600052602260045260246000fd5b600060028204905060018216806200167357607f821691505b602082108114156200168a57620016896200162b565b5b50919050565b61245580620016a06000396000f3fe6080604052600436106100e85760003560e01c8063bc6b0ee41161008a578063e80d7fec11610059578063e80d7fec14610316578063ee9bfc8c1461033f578063f373c46314610383578063f5a20a11146103ae576100e8565b8063bc6b0ee414610248578063c24521c614610285578063c41a360a146102b0578063d23e8489146102ed576100e8565b8063a7db555b116100c6578063a7db555b14610171578063a7eec44b1461019c578063ac2c10bb146101e0578063acc3a7ce1461020b576100e8565b8063022914a7146100ed5780631998aeef1461012a5780637473c86214610148575b600080fd5b3480156100f957600080fd5b50610114600480360381019061010f9190611cde565b6103e0565b6040516101219190611d24565b60405180910390f35b6101326103f8565b60405161013f9190611d5a565b60405180910390f35b34801561015457600080fd5b5061016f600480360381019061016a9190611ee7565b6103fd565b005b34801561017d57600080fd5b50610186610798565b6040516101939190611d24565b60405180910390f35b3480156101a857600080fd5b506101c360048036038101906101be9190611f86565b6107df565b6040516101d798979695949392919061204a565b60405180910390f35b3480156101ec57600080fd5b506101f5610971565b6040516102029190611d24565b60405180910390f35b34801561021757600080fd5b50610232600480360381019061022d9190611f86565b610977565b60405161023f9190612204565b60405180910390f35b34801561025457600080fd5b5061026f600480360381019061026a9190611f86565b610b73565b60405161027c9190612204565b60405180910390f35b34801561029157600080fd5b5061029a610dbb565b6040516102a79190611d24565b60405180910390f35b3480156102bc57600080fd5b506102d760048036038101906102d29190611f86565b610dc4565b6040516102e49190612226565b60405180910390f35b3480156102f957600080fd5b50610314600480360381019061030f9190611f86565b610e04565b005b34801561032257600080fd5b5061033d60048036038101906103389190612241565b6115db565b005b34801561034b57600080fd5b5061036660048036038101906103619190612281565b61182d565b60405161037a98979695949392919061204a565b60405180910390f35b34801561038f57600080fd5b506103986119dc565b6040516103a59190611d24565b60405180910390f35b3480156103ba57600080fd5b506103c36119ea565b6040516103d798979695949392919061204a565b60405180910390f35b60036020528060005260406000206000915090505481565b600090565b60405180610100016040528060005481526020013373ffffffffffffffffffffffffffffffffffffffff1681526020016001151581526020018581526020018481526020018381526020018281526020016001151581525060016000805481526020019081526020016000206000820151816000015560208201518160010160006101000a81548173ffffffffffffffffffffffffffffffffffffffff021916908373ffffffffffffffffffffffffffffffffffffffff16021790555060408201518160010160146101000a81548160ff02191690831515021790555060608201518160020190805190602001906104f6929190611b6a565b506080820151816003019080519060200190610513929190611b6a565b5060a0820151816004015560c0820151816005015560e08201518160060160006101000a81548160ff02191690831515021790555090505060008081548092919061055d906122f0565b91905055506001600360003373ffffffffffffffffffffffffffffffffffffffff1673ffffffffffffffffffffffffffffffffffffffff168152602001908152602001600020546105ae9190612339565b600360003373ffffffffffffffffffffffffffffffffffffffff1673ffffffffffffffffffffffffffffffffffffffff16815260200190815260200160002081905550600260003373ffffffffffffffffffffffffffffffffffffffff1673ffffffffffffffffffffffffffffffffffffffff16815260200190815260200160002060405180610100016040528060005481526020013373ffffffffffffffffffffffffffffffffffffffff1681526020016001151581526020018681526020018581526020018481526020018381526020016001151581525090806001815401808255809150506001900390600052602060002090600702016000909190919091506000820151816000015560208201518160010160006101000a81548173ffffffffffffffffffffffffffffffffffffffff021916908373ffffffffffffffffffffffffffffffffffffffff16021790555060408201518160010160146101000a81548160ff021916908315150217905550606082015181600201908051906020019061073e929190611b6a565b50608082015181600301908051906020019061075b929190611b6a565b5060a0820151816004015560c0820151816005015560e08201518160060160006101000a81548160ff021916908315150217905550505050505050565b6000600360003373ffffffffffffffffffffffffffffffffffffffff1673ffffffffffffffffffffffffffffffffffffffff16815260200190815260200160002054905090565b60016020528060005260406000206000915090508060000154908060010160009054906101000a900473ffffffffffffffffffffffffffffffffffffffff16908060010160149054906101000a900460ff1690806002018054610841906123be565b80601f016020809104026020016040519081016040528092919081815260200182805461086d906123be565b80156108ba5780601f1061088f576101008083540402835291602001916108ba565b820191906000526020600020905b81548152906001019060200180831161089d57829003601f168201915b5050505050908060030180546108cf906123be565b80601f01602080910402602001604051908101604052809291908181526020018280546108fb906123be565b80156109485780601f1061091d57610100808354040283529160200191610948565b820191906000526020600020905b81548152906001019060200180831161092b57829003601f168201915b5050505050908060040154908060050154908060060160009054906101000a900460ff16905088565b60005481565b61097f611bf0565b6001600083815260200190815260200160002060405180610100016040529081600082015481526020016001820160009054906101000a900473ffffffffffffffffffffffffffffffffffffffff1673ffffffffffffffffffffffffffffffffffffffff1673ffffffffffffffffffffffffffffffffffffffff1681526020016001820160149054906101000a900460ff16151515158152602001600282018054610a29906123be565b80601f0160208091040260200160405190810160405280929190818152602001828054610a55906123be565b8015610aa25780601f10610a7757610100808354040283529160200191610aa2565b820191906000526020600020905b815481529060010190602001808311610a8557829003601f168201915b50505050508152602001600382018054610abb906123be565b80601f0160208091040260200160405190810160405280929190818152602001828054610ae7906123be565b8015610b345780601f10610b0957610100808354040283529160200191610b34565b820191906000526020600020905b815481529060010190602001808311610b1757829003601f168201915b5050505050815260200160048201548152602001600582015481526020016006820160009054906101000a900460ff1615151515815250509050919050565b610b7b611bf0565b600260003373ffffffffffffffffffffffffffffffffffffffff1673ffffffffffffffffffffffffffffffffffffffff1681526020019081526020016000208281548110610bcc57610bcb6123f0565b5b906000526020600020906007020160405180610100016040529081600082015481526020016001820160009054906101000a900473ffffffffffffffffffffffffffffffffffffffff1673ffffffffffffffffffffffffffffffffffffffff1673ffffffffffffffffffffffffffffffffffffffff1681526020016001820160149054906101000a900460ff16151515158152602001600282018054610c71906123be565b80601f0160208091040260200160405190810160405280929190818152602001828054610c9d906123be565b8015610cea5780601f10610cbf57610100808354040283529160200191610cea565b820191906000526020600020905b815481529060010190602001808311610ccd57829003601f168201915b50505050508152602001600382018054610d03906123be565b80601f0160208091040260200160405190810160405280929190818152602001828054610d2f906123be565b8015610d7c5780601f10610d5157610100808354040283529160200191610d7c565b820191906000526020600020905b815481529060010190602001808311610d5f57829003601f168201915b5050505050815260200160048201548152602001600582015481526020016006820160009054906101000a900460ff1615151515815250509050919050565b60008054905090565b60006001600083815260200190815260200160002060010160009054906101000a900473ffffffffffffffffffffffffffffffffffffffff169050919050565b60006001600083815260200190815260200160002060010160009054906101000a900473ffffffffffffffffffffffffffffffffffffffff169050336001600084815260200190815260200160002060010160006101000a81548173ffffffffffffffffffffffffffffffffffffffff021916908373ffffffffffffffffffffffffffffffffffffffff1602179055506000600160008481526020019081526020016000206005018190555060006001600084815260200190815260200160002060060160006101000a81548160ff0219169083151502179055506000600360008373ffffffffffffffffffffffffffffffffffffffff1673ffffffffffffffffffffffffffffffffffffffff16815260200190815260200160002054905060005b818110156110a65783600260008573ffffffffffffffffffffffffffffffffffffffff1673ffffffffffffffffffffffffffffffffffffffff1681526020019081526020016000208281548110610f8057610f7f6123f0565b5b9060005260206000209060070201600001541415611093576000600260008573ffffffffffffffffffffffffffffffffffffffff1673ffffffffffffffffffffffffffffffffffffffff1681526020019081526020016000208281548110610feb57610fea6123f0565b5b906000526020600020906007020160010160146101000a81548160ff0219169083151502179055506000600260008573ffffffffffffffffffffffffffffffffffffffff1673ffffffffffffffffffffffffffffffffffffffff1681526020019081526020016000208281548110611066576110656123f0565b5b906000526020600020906007020160060160006101000a81548160ff0219169083151502179055506110a6565b808061109e906122f0565b915050610f26565b506000600360003373ffffffffffffffffffffffffffffffffffffffff1673ffffffffffffffffffffffffffffffffffffffff16815260200190815260200160002054905060008060005b838110156111825786600260003373ffffffffffffffffffffffffffffffffffffffff1673ffffffffffffffffffffffffffffffffffffffff168152602001908152602001600020828154811061114b5761114a6123f0565b5b906000526020600020906007020160000154141561116f5760019250809150611182565b808061117a906122f0565b9150506110f1565b5060001515821515141561148757600260003373ffffffffffffffffffffffffffffffffffffffff1673ffffffffffffffffffffffffffffffffffffffff1681526020019081526020016000206040518061010001604052808881526020013373ffffffffffffffffffffffffffffffffffffffff168152602001600115158152602001600160008a81526020019081526020016000206002018054611227906123be565b80601f0160208091040260200160405190810160405280929190818152602001828054611253906123be565b80156112a05780601f10611275576101008083540402835291602001916112a0565b820191906000526020600020905b81548152906001019060200180831161128357829003601f168201915b50505050508152602001600160008a815260200190815260200160002060030180546112cb906123be565b80601f01602080910402602001604051908101604052809291908181526020018280546112f7906123be565b80156113445780601f1061131957610100808354040283529160200191611344565b820191906000526020600020905b81548152906001019060200180831161132757829003601f168201915b50505050508152602001600160008a8152602001908152602001600020600401548152602001600081526020016000151581525090806001815401808255809150506001900390600052602060002090600702016000909190919091506000820151816000015560208201518160010160006101000a81548173ffffffffffffffffffffffffffffffffffffffff021916908373ffffffffffffffffffffffffffffffffffffffff16021790555060408201518160010160146101000a81548160ff021916908315150217905550606082015181600201908051906020019061142e929190611b6a565b50608082015181600301908051906020019061144b929190611b6a565b5060a0820151816004015560c0820151816005015560e08201518160060160006101000a81548160ff021916908315150217905550505061157e565b6001600260003373ffffffffffffffffffffffffffffffffffffffff1673ffffffffffffffffffffffffffffffffffffffff16815260200190815260200160002082815481106114da576114d96123f0565b5b906000526020600020906007020160010160146101000a81548160ff0219169083151502179055506000600260003373ffffffffffffffffffffffffffffffffffffffff1673ffffffffffffffffffffffffffffffffffffffff1681526020019081526020016000208281548110611555576115546123f0565b5b906000526020600020906007020160060160006101000a81548160ff0219169083151502179055505b600360003373ffffffffffffffffffffffffffffffffffffffff1673ffffffffffffffffffffffffffffffffffffffff16815260200190815260200160002060008154809291906115ce906122f0565b9190505550505050505050565b806001600084815260200190815260200160002060050181905550600180600084815260200190815260200160002060060160006101000a81548160ff02191690831515021790555060006001600084815260200190815260200160002060010160009054906101000a900473ffffffffffffffffffffffffffffffffffffffff1690506000600360008373ffffffffffffffffffffffffffffffffffffffff1673ffffffffffffffffffffffffffffffffffffffff16815260200190815260200160002054905060005b818110156118265784600260008573ffffffffffffffffffffffffffffffffffffffff1673ffffffffffffffffffffffffffffffffffffffff1681526020019081526020016000208281548110611700576116ff6123f0565b5b9060005260206000209060070201600001541415611813576000600260008573ffffffffffffffffffffffffffffffffffffffff1673ffffffffffffffffffffffffffffffffffffffff168152602001908152602001600020828154811061176b5761176a6123f0565b5b906000526020600020906007020160010160146101000a81548160ff0219169083151502179055506001600260008573ffffffffffffffffffffffffffffffffffffffff1673ffffffffffffffffffffffffffffffffffffffff16815260200190815260200160002082815481106117e6576117e56123f0565b5b906000526020600020906007020160060160006101000a81548160ff021916908315150217905550611826565b808061181e906122f0565b9150506116a6565b5050505050565b6002602052816000526040600020818154811061184957600080fd5b9060005260206000209060070201600091509150508060000154908060010160009054906101000a900473ffffffffffffffffffffffffffffffffffffffff16908060010160149054906101000a900460ff16908060020180546118ac906123be565b80601f01602080910402602001604051908101604052809291908181526020018280546118d8906123be565b80156119255780601f106118fa57610100808354040283529160200191611925565b820191906000526020600020905b81548152906001019060200180831161190857829003601f168201915b50505050509080600301805461193a906123be565b80601f0160208091040260200160405190810160405280929190818152602001828054611966906123be565b80156119b35780601f10611988576101008083540402835291602001916119b3565b820191906000526020600020905b81548152906001019060200180831161199657829003601f168201915b5050505050908060040154908060050154908060060160009054906101000a900460ff16905088565b600080600790508091505090565b60048060000154908060010160009054906101000a900473ffffffffffffffffffffffffffffffffffffffff16908060010160149054906101000a900460ff1690806002018054611a3a906123be565b80601f0160208091040260200160405190810160405280929190818152602001828054611a66906123be565b8015611ab35780601f10611a8857610100808354040283529160200191611ab3565b820191906000526020600020905b815481529060010190602001808311611a9657829003601f168201915b505050505090806003018054611ac8906123be565b80601f0160208091040260200160405190810160405280929190818152602001828054611af4906123be565b8015611b415780601f10611b1657610100808354040283529160200191611b41565b820191906000526020600020905b815481529060010190602001808311611b2457829003601f168201915b5050505050908060040154908060050154908060060160009054906101000a900460ff16905088565b828054611b76906123be565b90600052602060002090601f016020900481019282611b985760008555611bdf565b82601f10611bb157805160ff1916838001178555611bdf565b82800160010185558215611bdf579182015b82811115611bde578251825591602001919060010190611bc3565b5b509050611bec9190611c4f565b5090565b60405180610100016040528060008152602001600073ffffffffffffffffffffffffffffffffffffffff168152602001600015158152602001606081526020016060815260200160008152602001600081526020016000151581525090565b5b80821115611c68576000816000905550600101611c50565b5090565b6000604051905090565b600080fd5b600080fd5b600073ffffffffffffffffffffffffffffffffffffffff82169050919050565b6000611cab82611c80565b9050919050565b611cbb81611ca0565b8114611cc657600080fd5b50565b600081359050611cd881611cb2565b92915050565b600060208284031215611cf457611cf3611c76565b5b6000611d0284828501611cc9565b91505092915050565b6000819050919050565b611d1e81611d0b565b82525050565b6000602082019050611d396000830184611d15565b92915050565b60008115159050919050565b611d5481611d3f565b82525050565b6000602082019050611d6f6000830184611d4b565b92915050565b600080fd5b600080fd5b6000601f19601f8301169050919050565b7f4e487b7100000000000000000000000000000000000000000000000000000000600052604160045260246000fd5b611dc882611d7f565b810181811067ffffffffffffffff82111715611de757611de6611d90565b5b80604052505050565b6000611dfa611c6c565b9050611e068282611dbf565b919050565b600067ffffffffffffffff821115611e2657611e25611d90565b5b611e2f82611d7f565b9050602081019050919050565b82818337600083830152505050565b6000611e5e611e5984611e0b565b611df0565b905082815260208101848484011115611e7a57611e79611d7a565b5b611e85848285611e3c565b509392505050565b600082601f830112611ea257611ea1611d75565b5b8135611eb2848260208601611e4b565b91505092915050565b611ec481611d0b565b8114611ecf57600080fd5b50565b600081359050611ee181611ebb565b92915050565b60008060008060808587031215611f0157611f00611c76565b5b600085013567ffffffffffffffff811115611f1f57611f1e611c7b565b5b611f2b87828801611e8d565b945050602085013567ffffffffffffffff811115611f4c57611f4b611c7b565b5b611f5887828801611e8d565b9350506040611f6987828801611ed2565b9250506060611f7a87828801611ed2565b91505092959194509250565b600060208284031215611f9c57611f9b611c76565b5b6000611faa84828501611ed2565b91505092915050565b611fbc81611ca0565b82525050565b600081519050919050565b600082825260208201905092915050565b60005b83811015611ffc578082015181840152602081019050611fe1565b8381111561200b576000848401525b50505050565b600061201c82611fc2565b6120268185611fcd565b9350612036818560208601611fde565b61203f81611d7f565b840191505092915050565b600061010082019050612060600083018b611d15565b61206d602083018a611fb3565b61207a6040830189611d4b565b818103606083015261208c8188612011565b905081810360808301526120a08187612011565b90506120af60a0830186611d15565b6120bc60c0830185611d15565b6120c960e0830184611d4b565b9998505050505050505050565b6120df81611d0b565b82525050565b6120ee81611ca0565b82525050565b6120fd81611d3f565b82525050565b600082825260208201905092915050565b600061211f82611fc2565b6121298185612103565b9350612139818560208601611fde565b61214281611d7f565b840191505092915050565b60006101008301600083015161216660008601826120d6565b50602083015161217960208601826120e5565b50604083015161218c60408601826120f4565b50606083015184820360608601526121a48282612114565b915050608083015184820360808601526121be8282612114565b91505060a08301516121d360a08601826120d6565b5060c08301516121e660c08601826120d6565b5060e08301516121f960e08601826120f4565b508091505092915050565b6000602082019050818103600083015261221e818461214d565b905092915050565b600060208201905061223b6000830184611fb3565b92915050565b6000806040838503121561225857612257611c76565b5b600061226685828601611ed2565b925050602061227785828601611ed2565b9150509250929050565b6000806040838503121561229857612297611c76565b5b60006122a685828601611cc9565b92505060206122b785828601611ed2565b9150509250929050565b7f4e487b7100000000000000000000000000000000000000000000000000000000600052601160045260246000fd5b60006122fb82611d0b565b91507fffffffffffffffffffffffffffffffffffffffffffffffffffffffffffffffff82141561232e5761232d6122c1565b5b600182019050919050565b600061234482611d0b565b915061234f83611d0b565b9250827fffffffffffffffffffffffffffffffffffffffffffffffffffffffffffffffff03821115612384576123836122c1565b5b828201905092915050565b7f4e487b7100000000000000000000000000000000000000000000000000000000600052602260045260246000fd5b600060028204905060018216806123d657607f821691505b602082108114156123ea576123e961238f565b5b50919050565b7f4e487b7100000000000000000000000000000000000000000000000000000000600052603260045260246000fdfea264697066735822122079644d9a5f2eed718f55ec31dbc71d4187423824a4e6a0abe6482eb756c1ba3164736f6c634300080a0033",
  "immutableReferences": {},
  "source": "// SPDX-License-Identifier: MIT\npragma solidity 0.8.10;\n\ncontract Auction {\n\n  struct Water {\n    uint id;\n    address owner;\n    bool active;\n    string waterSource;\n    string waterLocation;\n    uint amount;\n    uint price;\n    bool forSale;\n  }\n\n  uint public rightsCount = 0;\n\n   //uint == ID\n   mapping (uint => Water) public water;\n   mapping (address => Water[]) public ownership;\n   mapping (address => uint) public owners;\n\n   Water public newWater;\n\n\n  event LogBid(address indexed _highestBidder, uint256 _highestBid);\n  event LogWithdrawal(address indexed _withdrawer, uint256 amount);\n\n// Assign values to some properties during deployment\n constructor () {\n\n   water[0] = Water(0, 0xc2ab56188cdFC64f19fb9DE3612ff50f11B45D22, true, \"Colorado\", \"Northern Water\", 150, 0, false);\n   rightsCount++;\n\n   water[1] = Water(1, msg.sender, true, \"Big Thompson\", \"Northern Water\", 275, 500, true);\n   rightsCount++;\n\n   water[2] = Water(2, 0xc2ab56188cdFC64f19fb9DE3612ff50f11B45D22, true, \"South Platte\", \"Northern Water\", 25, 50, true);\n   rightsCount++;\n\n   water[3] = Water(3, 0xc2ab56188cdFC64f19fb9DE3612ff50f11B45D22, true, \"Green\", \"Northern Water\", 350, 1500, true);\n   rightsCount++;\n\n   water[4] = Water(4, msg.sender, true, \"Yampa\", \"Northern Water\", 300, 0, false);\n   rightsCount++;\n\n   owners[msg.sender] = 2;\n   owners[0xc2ab56188cdFC64f19fb9DE3612ff50f11B45D22] = 3;\n\n   ownership[0xc2ab56188cdFC64f19fb9DE3612ff50f11B45D22].push(Water(0, 0xc2ab56188cdFC64f19fb9DE3612ff50f11B45D22, true, \"Colorado\", \"Northern Water\", 150, 0, false));\n   ownership[msg.sender].push(Water(1, msg.sender, true, \"Big Thompson\", \"Northern Water\", 275, 500, true));\n   ownership[0xc2ab56188cdFC64f19fb9DE3612ff50f11B45D22].push(Water(2, 0xc2ab56188cdFC64f19fb9DE3612ff50f11B45D22, true, \"South Platte\", \"Northern Water\", 25, 50, true));\n   ownership[0xc2ab56188cdFC64f19fb9DE3612ff50f11B45D22].push(Water(3, 0xc2ab56188cdFC64f19fb9DE3612ff50f11B45D22, true, \"Green\", \"Northern Water\", 350, 1500, true));\n   ownership[msg.sender].push(Water(4, msg.sender, true, \"Yampa\", \"Northern Water\", 300, 0, false));\n\n\n }\n\n\n\n function getOwnerAssets(uint id) view public returns (Water memory) {\n   return ownership[msg.sender][id];\n }\n\n function getOwnerNumber () view public returns (uint) {\n   return owners[msg.sender];\n }\n\nfunction addNewAsset (string memory source, string memory loc, uint amount, uint price) public {\n\n  water[rightsCount] = Water(rightsCount, msg.sender, true, source, loc, amount, price, true);\n  rightsCount++;\n\n  owners[msg.sender] = owners[msg.sender] + 1;\n\n  ownership[msg.sender].push(Water(rightsCount, msg.sender, true, source, loc, amount, price, true));\n\n}\n\n function bid() public payable returns (bool) {\n\n }\n\n function getRight(uint index) view public returns (Water memory) {\n   return water[index];\n }\n\n function getSaleCount() view public returns (uint) {\n    return rightsCount;\n  }\n\n /*function makeBid() public payable notOwner() returns (bool) {\n   uint256 bidAmount = bids[msg.sender] + msg.value;\n   require(bidAmount > highestBid.bidAmount, 'Bid error: Make a higher Bid.');\n\n   highestBid.bidder = msg.sender;\n   highestBid.bidAmount = bidAmount;\n   bids[msg.sender] = bidAmount;\n   emit LogBid(msg.sender, bidAmount);\n   return true;\n }*/\n\n /*function withdraw() public notOngoing() isOwner() returns (bool) {\n   uint256 amount = highestBid.bidAmount;\n   bids[highestBid.bidder] = 0;\n   highestBid.bidder = address(0);\n   highestBid.bidAmount = 0;\n\n   (bool success, ) = payable(owner).call{ value: amount }(\"\");\n   require(success, 'Withdrawal failed.');\n   emit LogWithdrawal(msg.sender, amount);\n   return true;\n }*/\n\n\nfunction listForSale(uint id, uint price) public {\n    water[id].price = price;\n    water[id].forSale = true;\n\n    address oldOwner = water[id].owner;\n\n    uint oldOwnerLength = owners[oldOwner];\n\n    for (uint i=0; i<oldOwnerLength; i++) {\n       if (ownership[oldOwner][i].id == id) {\n         ownership[oldOwner][i].active=false;\n         ownership[oldOwner][i].forSale=true;\n         break;\n       }\n     }\n}\n\n\n function transferOwnership(uint id) public {\n\n   address oldOwner = water[id].owner;\n\n   water[id].owner = msg.sender;\n   water[id].price = 0;\n   water[id].forSale = false;\n\n   uint oldOwnerLength = owners[oldOwner];\n\n   for (uint i=0; i<oldOwnerLength; i++) {\n      if (ownership[oldOwner][i].id == id) {\n        ownership[oldOwner][i].active=false;\n        ownership[oldOwner][i].forSale=false;\n        break;\n      }\n    }\n\n    uint newOwnerLength = owners[msg.sender];\n    bool isFound = false;\n    uint foundIndex = 0;\n\n    for (uint i=0; i<newOwnerLength; i++) {\n       if (ownership[msg.sender][i].id == id) {\n         isFound=true;\n         foundIndex = i;\n         break;\n       }\n     }\n\n    if (isFound == false){\n   ownership[msg.sender].push(Water(id, msg.sender, true, water[id].waterSource, water[id].waterLocation, water[id].amount, 0, false));\n  }\n\n  else {\n    ownership[msg.sender][foundIndex].active = true;\n    ownership[msg.sender][foundIndex].forSale = false;\n  }\n\n   owners[msg.sender]++;\n }\n\n function fetchHighestBid() public view returns (uint id) {\n   uint _highestBid = 7;\n   return _highestBid;\n }\n\n function getOwner(uint index) public view returns (address) {\n   return water[index].owner;\n }\n}\n",
  "sourcePath": "/Users/reuben/Desktop/work/lux/demo/dashboard/git/luxdashboard.github.io/contracts/Auction.sol",
  "compiler": {
    "name": "solc",
    "version": "0.8.10+commit.fc410830.Emscripten.clang"
  },
  "schemaVersion": "3.4.4",
  "updatedAt": "2022-01-05T04:45:10.527Z",
  "networkType": "ethereum",
  "devdoc": {
    "kind": "dev",
    "methods": {},
    "version": 1
  },
  "userdoc": {
    "kind": "user",
    "methods": {},
    "version": 1
  }
}