{
  "contractName": "Auction",
  "abi": [
    {
      "inputs": [],
      "stateMutability": "nonpayable",
      "type": "constructor"
    },
    {
      "anonymous": false,
      "inputs": [
        {
          "indexed": true,
          "internalType": "address",
          "name": "_highestBidder",
          "type": "address"
        },
        {
          "indexed": false,
          "internalType": "uint256",
          "name": "_highestBid",
          "type": "uint256"
        }
      ],
      "name": "LogBid",
      "type": "event"
    },
    {
      "anonymous": false,
      "inputs": [
        {
          "indexed": true,
          "internalType": "address",
          "name": "_withdrawer",
          "type": "address"
        },
        {
          "indexed": false,
          "internalType": "uint256",
          "name": "amount",
          "type": "uint256"
        }
      ],
      "name": "LogWithdrawal",
      "type": "event"
    },
    {
      "inputs": [],
      "name": "newWater",
      "outputs": [
        {
          "internalType": "uint256",
          "name": "id",
          "type": "uint256"
        },
        {
          "internalType": "address",
          "name": "owner",
          "type": "address"
        },
        {
          "internalType": "bool",
          "name": "active",
          "type": "bool"
        },
        {
          "internalType": "string",
          "name": "waterSource",
          "type": "string"
        },
        {
          "internalType": "string",
          "name": "waterLocation",
          "type": "string"
        },
        {
          "internalType": "uint256",
          "name": "amount",
          "type": "uint256"
        },
        {
          "internalType": "uint256",
          "name": "price",
          "type": "uint256"
        },
        {
          "internalType": "bool",
          "name": "forSale",
          "type": "bool"
        },
        {
          "internalType": "bool",
          "name": "rightType",
          "type": "bool"
        },
        {
          "internalType": "uint256",
          "name": "leaseLength",
          "type": "uint256"
        }
      ],
      "stateMutability": "view",
      "type": "function",
      "constant": true
    },
    {
      "inputs": [
        {
          "internalType": "address",
          "name": "",
          "type": "address"
        }
      ],
      "name": "owners",
      "outputs": [
        {
          "internalType": "uint256",
          "name": "",
          "type": "uint256"
        }
      ],
      "stateMutability": "view",
      "type": "function",
      "constant": true
    },
    {
      "inputs": [
        {
          "internalType": "address",
          "name": "",
          "type": "address"
        },
        {
          "internalType": "uint256",
          "name": "",
          "type": "uint256"
        }
      ],
      "name": "ownership",
      "outputs": [
        {
          "internalType": "uint256",
          "name": "id",
          "type": "uint256"
        },
        {
          "internalType": "address",
          "name": "owner",
          "type": "address"
        },
        {
          "internalType": "bool",
          "name": "active",
          "type": "bool"
        },
        {
          "internalType": "string",
          "name": "waterSource",
          "type": "string"
        },
        {
          "internalType": "string",
          "name": "waterLocation",
          "type": "string"
        },
        {
          "internalType": "uint256",
          "name": "amount",
          "type": "uint256"
        },
        {
          "internalType": "uint256",
          "name": "price",
          "type": "uint256"
        },
        {
          "internalType": "bool",
          "name": "forSale",
          "type": "bool"
        },
        {
          "internalType": "bool",
          "name": "rightType",
          "type": "bool"
        },
        {
          "internalType": "uint256",
          "name": "leaseLength",
          "type": "uint256"
        }
      ],
      "stateMutability": "view",
      "type": "function",
      "constant": true
    },
    {
      "inputs": [
        {
          "internalType": "address",
          "name": "",
          "type": "address"
        }
      ],
      "name": "purchaseTotal",
      "outputs": [
        {
          "internalType": "uint256",
          "name": "",
          "type": "uint256"
        }
      ],
      "stateMutability": "view",
      "type": "function",
      "constant": true
    },
    {
      "inputs": [],
      "name": "rightsCount",
      "outputs": [
        {
          "internalType": "uint256",
          "name": "",
          "type": "uint256"
        }
      ],
      "stateMutability": "view",
      "type": "function",
      "constant": true
    },
    {
      "inputs": [
        {
          "internalType": "address",
          "name": "",
          "type": "address"
        }
      ],
      "name": "salesTotal",
      "outputs": [
        {
          "internalType": "uint256",
          "name": "",
          "type": "uint256"
        }
      ],
      "stateMutability": "view",
      "type": "function",
      "constant": true
    },
    {
      "inputs": [],
      "name": "totalAcres",
      "outputs": [
        {
          "internalType": "uint256",
          "name": "",
          "type": "uint256"
        }
      ],
      "stateMutability": "view",
      "type": "function",
      "constant": true
    },
    {
      "inputs": [
        {
          "internalType": "uint256",
          "name": "",
          "type": "uint256"
        }
      ],
      "name": "water",
      "outputs": [
        {
          "internalType": "uint256",
          "name": "id",
          "type": "uint256"
        },
        {
          "internalType": "address",
          "name": "owner",
          "type": "address"
        },
        {
          "internalType": "bool",
          "name": "active",
          "type": "bool"
        },
        {
          "internalType": "string",
          "name": "waterSource",
          "type": "string"
        },
        {
          "internalType": "string",
          "name": "waterLocation",
          "type": "string"
        },
        {
          "internalType": "uint256",
          "name": "amount",
          "type": "uint256"
        },
        {
          "internalType": "uint256",
          "name": "price",
          "type": "uint256"
        },
        {
          "internalType": "bool",
          "name": "forSale",
          "type": "bool"
        },
        {
          "internalType": "bool",
          "name": "rightType",
          "type": "bool"
        },
        {
          "internalType": "uint256",
          "name": "leaseLength",
          "type": "uint256"
        }
      ],
      "stateMutability": "view",
      "type": "function",
      "constant": true
    },
    {
      "inputs": [
        {
          "internalType": "uint256",
          "name": "id",
          "type": "uint256"
        }
      ],
      "name": "getOwnerAssets",
      "outputs": [
        {
          "components": [
            {
              "internalType": "uint256",
              "name": "id",
              "type": "uint256"
            },
            {
              "internalType": "address",
              "name": "owner",
              "type": "address"
            },
            {
              "internalType": "bool",
              "name": "active",
              "type": "bool"
            },
            {
              "internalType": "string",
              "name": "waterSource",
              "type": "string"
            },
            {
              "internalType": "string",
              "name": "waterLocation",
              "type": "string"
            },
            {
              "internalType": "uint256",
              "name": "amount",
              "type": "uint256"
            },
            {
              "internalType": "uint256",
              "name": "price",
              "type": "uint256"
            },
            {
              "internalType": "bool",
              "name": "forSale",
              "type": "bool"
            },
            {
              "internalType": "bool",
              "name": "rightType",
              "type": "bool"
            },
            {
              "internalType": "uint256",
              "name": "leaseLength",
              "type": "uint256"
            }
          ],
          "internalType": "struct Auction.Water",
          "name": "",
          "type": "tuple"
        }
      ],
      "stateMutability": "view",
      "type": "function",
      "constant": true
    },
    {
      "inputs": [],
      "name": "getOwnerNumber",
      "outputs": [
        {
          "internalType": "uint256",
          "name": "",
          "type": "uint256"
        }
      ],
      "stateMutability": "view",
      "type": "function",
      "constant": true
    },
    {
      "inputs": [],
      "name": "getOwnerPurchases",
      "outputs": [
        {
          "internalType": "uint256",
          "name": "",
          "type": "uint256"
        }
      ],
      "stateMutability": "view",
      "type": "function",
      "constant": true
    },
    {
      "inputs": [],
      "name": "getOwnerSale",
      "outputs": [
        {
          "internalType": "uint256",
          "name": "",
          "type": "uint256"
        }
      ],
      "stateMutability": "view",
      "type": "function",
      "constant": true
    },
    {
      "inputs": [
        {
          "internalType": "string",
          "name": "source",
          "type": "string"
        },
        {
          "internalType": "string",
          "name": "loc",
          "type": "string"
        },
        {
          "internalType": "uint256",
          "name": "amount",
          "type": "uint256"
        },
        {
          "internalType": "uint256",
          "name": "price",
          "type": "uint256"
        },
        {
          "internalType": "bool",
          "name": "rightType",
          "type": "bool"
        },
        {
          "internalType": "uint256",
          "name": "leaseLength",
          "type": "uint256"
        }
      ],
      "name": "addNewAsset",
      "outputs": [],
      "stateMutability": "nonpayable",
      "type": "function"
    },
    {
      "inputs": [],
      "name": "bid",
      "outputs": [
        {
          "internalType": "bool",
          "name": "",
          "type": "bool"
        }
      ],
      "stateMutability": "payable",
      "type": "function",
      "payable": true
    },
    {
      "inputs": [
        {
          "internalType": "uint256",
          "name": "index",
          "type": "uint256"
        }
      ],
      "name": "getRight",
      "outputs": [
        {
          "components": [
            {
              "internalType": "uint256",
              "name": "id",
              "type": "uint256"
            },
            {
              "internalType": "address",
              "name": "owner",
              "type": "address"
            },
            {
              "internalType": "bool",
              "name": "active",
              "type": "bool"
            },
            {
              "internalType": "string",
              "name": "waterSource",
              "type": "string"
            },
            {
              "internalType": "string",
              "name": "waterLocation",
              "type": "string"
            },
            {
              "internalType": "uint256",
              "name": "amount",
              "type": "uint256"
            },
            {
              "internalType": "uint256",
              "name": "price",
              "type": "uint256"
            },
            {
              "internalType": "bool",
              "name": "forSale",
              "type": "bool"
            },
            {
              "internalType": "bool",
              "name": "rightType",
              "type": "bool"
            },
            {
              "internalType": "uint256",
              "name": "leaseLength",
              "type": "uint256"
            }
          ],
          "internalType": "struct Auction.Water",
          "name": "",
          "type": "tuple"
        }
      ],
      "stateMutability": "view",
      "type": "function",
      "constant": true
    },
    {
      "inputs": [],
      "name": "getSaleCount",
      "outputs": [
        {
          "internalType": "uint256",
          "name": "",
          "type": "uint256"
        }
      ],
      "stateMutability": "view",
      "type": "function",
      "constant": true
    },
    {
      "inputs": [
        {
          "internalType": "uint256",
          "name": "id",
          "type": "uint256"
        },
        {
          "internalType": "uint256",
          "name": "price",
          "type": "uint256"
        }
      ],
      "name": "listForSale",
      "outputs": [],
      "stateMutability": "nonpayable",
      "type": "function"
    },
    {
      "inputs": [
        {
          "internalType": "uint256",
          "name": "id",
          "type": "uint256"
        }
      ],
      "name": "transferOwnership",
      "outputs": [],
      "stateMutability": "nonpayable",
      "type": "function"
    },
    {
      "inputs": [],
      "name": "fetchHighestBid",
      "outputs": [
        {
          "internalType": "uint256",
          "name": "id",
          "type": "uint256"
        }
      ],
      "stateMutability": "view",
      "type": "function",
      "constant": true
    },
    {
      "inputs": [
        {
          "internalType": "uint256",
          "name": "index",
          "type": "uint256"
        }
      ],
      "name": "getOwner",
      "outputs": [
        {
          "internalType": "address",
          "name": "",
          "type": "address"
        }
      ],
      "stateMutability": "view",
      "type": "function",
      "constant": true
    }
  ],
  "bytecode": "0x60806040526000805560006001553480156200001a57600080fd5b506040518061014001604052806000815260200173c2ab56188cdfc64f19fb9de3612ff50f11b45d2273ffffffffffffffffffffffffffffffffffffffff1681526020016001151581526020016040518060400160405280600881526020017f436f6c6f7261646f00000000000000000000000000000000000000000000000081525081526020016040518060400160405280600b81526020017f57696e746572205061726b00000000000000000000000000000000000000000081525081526020016096815260200160a081526020016000151581526020016001151581526020016000815250600260008081526020019081526020016000206000820151816000015560208201518160010160006101000a81548173ffffffffffffffffffffffffffffffffffffffff021916908373ffffffffffffffffffffffffffffffffffffffff16021790555060408201518160010160146101000a81548160ff0219169083151502179055506060820151816002019080519060200190620001a49291906200254d565b506080820151816003019080519060200190620001c39291906200254d565b5060a0820151816004015560c0820151816005015560e08201518160060160006101000a81548160ff0219169083151502179055506101008201518160060160016101000a81548160ff02191690831515021790555061012082015181600701559050506000808154809291906200023b9062002636565b9190505550604051806101400160405280600181526020013373ffffffffffffffffffffffffffffffffffffffff1681526020016001151581526020016040518060400160405280600c81526020017f4269672054686f6d70736f6e000000000000000000000000000000000000000081525081526020016040518060400160405280600e81526020017f4e6f72746865726e205761746572000000000000000000000000000000000000815250815260200161011381526020016101f48152602001600115158152602001600115158152602001600081525060026000600181526020019081526020016000206000820151816000015560208201518160010160006101000a81548173ffffffffffffffffffffffffffffffffffffffff021916908373ffffffffffffffffffffffffffffffffffffffff16021790555060408201518160010160146101000a81548160ff0219169083151502179055506060820151816002019080519060200190620003b89291906200254d565b506080820151816003019080519060200190620003d79291906200254d565b5060a0820151816004015560c0820151816005015560e08201518160060160006101000a81548160ff0219169083151502179055506101008201518160060160016101000a81548160ff02191690831515021790555061012082015181600701559050506000808154809291906200044f9062002636565b91905055506040518061014001604052806002815260200173c2ab56188cdfc64f19fb9de3612ff50f11b45d2273ffffffffffffffffffffffffffffffffffffffff1681526020016001151581526020016040518060400160405280600c81526020017f536f75746820506c61747465000000000000000000000000000000000000000081525081526020016040518060400160405280600c81526020017f4d6f756e74205765726e6572000000000000000000000000000000000000000081525081526020016019815260200160328152602001600115158152602001600015158152602001600c81525060026000600281526020019081526020016000206000820151816000015560208201518160010160006101000a81548173ffffffffffffffffffffffffffffffffffffffff021916908373ffffffffffffffffffffffffffffffffffffffff16021790555060408201518160010160146101000a81548160ff0219169083151502179055506060820151816002019080519060200190620005de9291906200254d565b506080820151816003019080519060200190620005fd9291906200254d565b5060a0820151816004015560c0820151816005015560e08201518160060160006101000a81548160ff0219169083151502179055506101008201518160060160016101000a81548160ff0219169083151502179055506101208201518160070155905050600080815480929190620006759062002636565b919050555060405180610140016040528060038152602001738356797b7c6caafe80d4cd3a308e6c00dbb7bd0073ffffffffffffffffffffffffffffffffffffffff1681526020016001151581526020016040518060400160405280600581526020017f477265656e00000000000000000000000000000000000000000000000000000081525081526020016040518060400160405280600681526020017f446f6e616c610000000000000000000000000000000000000000000000000000815250815260200161015e81526020016105dc8152602001600115158152602001600015158152602001602481525060026000600381526020019081526020016000206000820151816000015560208201518160010160006101000a81548173ffffffffffffffffffffffffffffffffffffffff021916908373ffffffffffffffffffffffffffffffffffffffff16021790555060408201518160010160146101000a81548160ff0219169083151502179055506060820151816002019080519060200190620008069291906200254d565b506080820151816003019080519060200190620008259291906200254d565b5060a0820151816004015560c0820151816005015560e08201518160060160006101000a81548160ff0219169083151502179055506101008201518160060160016101000a81548160ff02191690831515021790555061012082015181600701559050506000808154809291906200089d9062002636565b9190505550604051806101400160405280600481526020013373ffffffffffffffffffffffffffffffffffffffff1681526020016001151581526020016040518060400160405280600581526020017f59616d706100000000000000000000000000000000000000000000000000000081525081526020016040518060400160405280600681526020017f446f6e616c610000000000000000000000000000000000000000000000000000815250815260200161012c815260200161010e8152602001600015158152602001600115158152602001600081525060026000600481526020019081526020016000206000820151816000015560208201518160010160006101000a81548173ffffffffffffffffffffffffffffffffffffffff021916908373ffffffffffffffffffffffffffffffffffffffff16021790555060408201518160010160146101000a81548160ff021916908315150217905550606082015181600201908051906020019062000a1a9291906200254d565b50608082015181600301908051906020019062000a399291906200254d565b5060a0820151816004015560c0820151816005015560e08201518160060160006101000a81548160ff0219169083151502179055506101008201518160060160016101000a81548160ff021916908315150217905550610120820151816007015590505060008081548092919062000ab19062002636565b919050555060405180610140016040528060058152602001738356797b7c6caafe80d4cd3a308e6c00dbb7bd0073ffffffffffffffffffffffffffffffffffffffff1681526020016001151581526020016040518060400160405280600781526020017f446f6c6f7265730000000000000000000000000000000000000000000000000081525081526020016040518060400160405280600a81526020017f43656e74656e6e69616c00000000000000000000000000000000000000000000815250815260200161028a81526020016109608152602001600015158152602001600015158152602001600c81525060026000600581526020019081526020016000206000820151816000015560208201518160010160006101000a81548173ffffffffffffffffffffffffffffffffffffffff021916908373ffffffffffffffffffffffffffffffffffffffff16021790555060408201518160010160146101000a81548160ff021916908315150217905550606082015181600201908051906020019062000c429291906200254d565b50608082015181600301908051906020019062000c619291906200254d565b5060a0820151816004015560c0820151816005015560e08201518160060160006101000a81548160ff0219169083151502179055506101008201518160060160016101000a81548160ff021916908315150217905550610120820151816007015590505060008081548092919062000cd99062002636565b919050555060405180610140016040528060068152602001738356797b7c6caafe80d4cd3a308e6c00dbb7bd0073ffffffffffffffffffffffffffffffffffffffff1681526020016001151581526020016040518060400160405280600c81526020017f4269672054686f6d70736f6e000000000000000000000000000000000000000081525081526020016040518060400160405280601081526020017f53742e20436861726c6573204d657361000000000000000000000000000000008152508152602001605581526020016101908152602001600015158152602001600115158152602001600081525060026000600681526020019081526020016000206000820151816000015560208201518160010160006101000a81548173ffffffffffffffffffffffffffffffffffffffff021916908373ffffffffffffffffffffffffffffffffffffffff16021790555060408201518160010160146101000a81548160ff021916908315150217905550606082015181600201908051906020019062000e699291906200254d565b50608082015181600301908051906020019062000e889291906200254d565b5060a0820151816004015560c0820151816005015560e08201518160060160006101000a81548160ff0219169083151502179055506101008201518160060160016101000a81548160ff021916908315150217905550610120820151816007015590505060008081548092919062000f009062002636565b9190505550604051806101400160405280600781526020013373ffffffffffffffffffffffffffffffffffffffff1681526020016001151581526020016040518060400160405280600881526020017f47756e6e69736f6e00000000000000000000000000000000000000000000000081525081526020016040518060400160405280600981526020017f576964656669656c640000000000000000000000000000000000000000000000815250815260200160738152602001605a8152602001600015158152602001600015158152602001602481525060026000600781526020019081526020016000206000820151816000015560208201518160010160006101000a81548173ffffffffffffffffffffffffffffffffffffffff021916908373ffffffffffffffffffffffffffffffffffffffff16021790555060408201518160010160146101000a81548160ff02191690831515021790555060608201518160020190805190602001906200107b9291906200254d565b5060808201518160030190805190602001906200109a9291906200254d565b5060a0820151816004015560c0820151816005015560e08201518160060160006101000a81548160ff0219169083151502179055506101008201518160060160016101000a81548160ff0219169083151502179055506101208201518160070155905050600080815480929190620011129062002636565b91905055506003600460003373ffffffffffffffffffffffffffffffffffffffff1673ffffffffffffffffffffffffffffffffffffffff1681526020019081526020016000208190555060026004600073c2ab56188cdfc64f19fb9de3612ff50f11b45d2273ffffffffffffffffffffffffffffffffffffffff1673ffffffffffffffffffffffffffffffffffffffff16815260200190815260200160002081905550600360046000738356797b7c6caafe80d4cd3a308e6c00dbb7bd0073ffffffffffffffffffffffffffffffffffffffff1673ffffffffffffffffffffffffffffffffffffffff168152602001908152602001600020819055506003600073c2ab56188cdfc64f19fb9de3612ff50f11b45d2273ffffffffffffffffffffffffffffffffffffffff1673ffffffffffffffffffffffffffffffffffffffff1681526020019081526020016000206040518061014001604052806000815260200173c2ab56188cdfc64f19fb9de3612ff50f11b45d2273ffffffffffffffffffffffffffffffffffffffff1681526020016001151581526020016040518060400160405280600881526020017f436f6c6f7261646f00000000000000000000000000000000000000000000000081525081526020016040518060400160405280600b81526020017f57696e746572205061726b00000000000000000000000000000000000000000081525081526020016096815260200160008152602001600015158152602001600115158152602001600081525090806001815401808255809150506001900390600052602060002090600802016000909190919091506000820151816000015560208201518160010160006101000a81548173ffffffffffffffffffffffffffffffffffffffff021916908373ffffffffffffffffffffffffffffffffffffffff16021790555060408201518160010160146101000a81548160ff0219169083151502179055506060820151816002019080519060200190620014009291906200254d565b5060808201518160030190805190602001906200141f9291906200254d565b5060a0820151816004015560c0820151816005015560e08201518160060160006101000a81548160ff0219169083151502179055506101008201518160060160016101000a81548160ff02191690831515021790555061012082015181600701555050600360003373ffffffffffffffffffffffffffffffffffffffff1673ffffffffffffffffffffffffffffffffffffffff168152602001908152602001600020604051806101400160405280600181526020013373ffffffffffffffffffffffffffffffffffffffff1681526020016001151581526020016040518060400160405280600c81526020017f4269672054686f6d70736f6e000000000000000000000000000000000000000081525081526020016040518060400160405280600e81526020017f4e6f72746865726e205761746572000000000000000000000000000000000000815250815260200161011381526020016101f48152602001600115158152602001600115158152602001600081525090806001815401808255809150506001900390600052602060002090600802016000909190919091506000820151816000015560208201518160010160006101000a81548173ffffffffffffffffffffffffffffffffffffffff021916908373ffffffffffffffffffffffffffffffffffffffff16021790555060408201518160010160146101000a81548160ff02191690831515021790555060608201518160020190805190602001906200164e9291906200254d565b5060808201518160030190805190602001906200166d9291906200254d565b5060a0820151816004015560c0820151816005015560e08201518160060160006101000a81548160ff0219169083151502179055506101008201518160060160016101000a81548160ff021916908315150217905550610120820151816007015550506003600073c2ab56188cdfc64f19fb9de3612ff50f11b45d2273ffffffffffffffffffffffffffffffffffffffff1673ffffffffffffffffffffffffffffffffffffffff1681526020019081526020016000206040518061014001604052806002815260200173c2ab56188cdfc64f19fb9de3612ff50f11b45d2273ffffffffffffffffffffffffffffffffffffffff1681526020016001151581526020016040518060400160405280600c81526020017f536f75746820506c61747465000000000000000000000000000000000000000081525081526020016040518060400160405280600c81526020017f4d6f756e74205765726e6572000000000000000000000000000000000000000081525081526020016019815260200160328152602001600115158152602001600015158152602001600c81525090806001815401808255809150506001900390600052602060002090600802016000909190919091506000820151816000015560208201518160010160006101000a81548173ffffffffffffffffffffffffffffffffffffffff021916908373ffffffffffffffffffffffffffffffffffffffff16021790555060408201518160010160146101000a81548160ff0219169083151502179055506060820151816002019080519060200190620018c29291906200254d565b506080820151816003019080519060200190620018e19291906200254d565b5060a0820151816004015560c0820151816005015560e08201518160060160006101000a81548160ff0219169083151502179055506101008201518160060160016101000a81548160ff0219169083151502179055506101208201518160070155505060036000738356797b7c6caafe80d4cd3a308e6c00dbb7bd0073ffffffffffffffffffffffffffffffffffffffff1673ffffffffffffffffffffffffffffffffffffffff16815260200190815260200160002060405180610140016040528060038152602001738356797b7c6caafe80d4cd3a308e6c00dbb7bd0073ffffffffffffffffffffffffffffffffffffffff1681526020016001151581526020016040518060400160405280600581526020017f477265656e00000000000000000000000000000000000000000000000000000081525081526020016040518060400160405280600681526020017f446f6e616c610000000000000000000000000000000000000000000000000000815250815260200161015e81526020016105dc8152602001600115158152602001600015158152602001602481525090806001815401808255809150506001900390600052602060002090600802016000909190919091506000820151816000015560208201518160010160006101000a81548173ffffffffffffffffffffffffffffffffffffffff021916908373ffffffffffffffffffffffffffffffffffffffff16021790555060408201518160010160146101000a81548160ff021916908315150217905550606082015181600201908051906020019062001b389291906200254d565b50608082015181600301908051906020019062001b579291906200254d565b5060a0820151816004015560c0820151816005015560e08201518160060160006101000a81548160ff0219169083151502179055506101008201518160060160016101000a81548160ff02191690831515021790555061012082015181600701555050600360003373ffffffffffffffffffffffffffffffffffffffff1673ffffffffffffffffffffffffffffffffffffffff168152602001908152602001600020604051806101400160405280600481526020013373ffffffffffffffffffffffffffffffffffffffff1681526020016001151581526020016040518060400160405280600581526020017f59616d706100000000000000000000000000000000000000000000000000000081525081526020016040518060400160405280600681526020017f446f6e616c610000000000000000000000000000000000000000000000000000815250815260200161012c815260200160008152602001600015158152602001600115158152602001600081525090806001815401808255809150506001900390600052602060002090600802016000909190919091506000820151816000015560208201518160010160006101000a81548173ffffffffffffffffffffffffffffffffffffffff021916908373ffffffffffffffffffffffffffffffffffffffff16021790555060408201518160010160146101000a81548160ff021916908315150217905550606082015181600201908051906020019062001d859291906200254d565b50608082015181600301908051906020019062001da49291906200254d565b5060a0820151816004015560c0820151816005015560e08201518160060160006101000a81548160ff0219169083151502179055506101008201518160060160016101000a81548160ff0219169083151502179055506101208201518160070155505060036000738356797b7c6caafe80d4cd3a308e6c00dbb7bd0073ffffffffffffffffffffffffffffffffffffffff1673ffffffffffffffffffffffffffffffffffffffff16815260200190815260200160002060405180610140016040528060058152602001738356797b7c6caafe80d4cd3a308e6c00dbb7bd0073ffffffffffffffffffffffffffffffffffffffff1681526020016001151581526020016040518060400160405280600781526020017f446f6c6f7265730000000000000000000000000000000000000000000000000081525081526020016040518060400160405280600a81526020017f43656e74656e6e69616c00000000000000000000000000000000000000000000815250815260200161028a81526020016109608152602001600115158152602001600015158152602001600c81525090806001815401808255809150506001900390600052602060002090600802016000909190919091506000820151816000015560208201518160010160006101000a81548173ffffffffffffffffffffffffffffffffffffffff021916908373ffffffffffffffffffffffffffffffffffffffff16021790555060408201518160010160146101000a81548160ff021916908315150217905550606082015181600201908051906020019062001ffb9291906200254d565b5060808201518160030190805190602001906200201a9291906200254d565b5060a0820151816004015560c0820151816005015560e08201518160060160006101000a81548160ff0219169083151502179055506101008201518160060160016101000a81548160ff0219169083151502179055506101208201518160070155505060036000738356797b7c6caafe80d4cd3a308e6c00dbb7bd0073ffffffffffffffffffffffffffffffffffffffff1673ffffffffffffffffffffffffffffffffffffffff16815260200190815260200160002060405180610140016040528060068152602001738356797b7c6caafe80d4cd3a308e6c00dbb7bd0073ffffffffffffffffffffffffffffffffffffffff1681526020016001151581526020016040518060400160405280600c81526020017f4269672054686f6d70736f6e000000000000000000000000000000000000000081525081526020016040518060400160405280601081526020017f53742e20436861726c6573204d657361000000000000000000000000000000008152508152602001605581526020016101908152602001600115158152602001600115158152602001600081525090806001815401808255809150506001900390600052602060002090600802016000909190919091506000820151816000015560208201518160010160006101000a81548173ffffffffffffffffffffffffffffffffffffffff021916908373ffffffffffffffffffffffffffffffffffffffff16021790555060408201518160010160146101000a81548160ff0219169083151502179055506060820151816002019080519060200190620022709291906200254d565b5060808201518160030190805190602001906200228f9291906200254d565b5060a0820151816004015560c0820151816005015560e08201518160060160006101000a81548160ff0219169083151502179055506101008201518160060160016101000a81548160ff02191690831515021790555061012082015181600701555050600360003373ffffffffffffffffffffffffffffffffffffffff1673ffffffffffffffffffffffffffffffffffffffff168152602001908152602001600020604051806101400160405280600781526020013373ffffffffffffffffffffffffffffffffffffffff1681526020016001151581526020016040518060400160405280600881526020017f47756e6e69736f6e00000000000000000000000000000000000000000000000081525081526020016040518060400160405280600981526020017f576964656669656c640000000000000000000000000000000000000000000000815250815260200160738152602001605a8152602001600015158152602001600015158152602001602481525090806001815401808255809150506001900390600052602060002090600802016000909190919091506000820151816000015560208201518160010160006101000a81548173ffffffffffffffffffffffffffffffffffffffff021916908373ffffffffffffffffffffffffffffffffffffffff16021790555060408201518160010160146101000a81548160ff0219169083151502179055506060820151816002019080519060200190620024bc9291906200254d565b506080820151816003019080519060200190620024db9291906200254d565b5060a0820151816004015560c0820151816005015560e08201518160060160006101000a81548160ff0219169083151502179055506101008201518160060160016101000a81548160ff0219169083151502179055506101208201518160070155505061079e600181905550620026e9565b8280546200255b90620026b3565b90600052602060002090601f0160209004810192826200257f5760008555620025cb565b82601f106200259a57805160ff1916838001178555620025cb565b82800160010185558215620025cb579182015b82811115620025ca578251825591602001919060010190620025ad565b5b509050620025da9190620025de565b5090565b5b80821115620025f9576000816000905550600101620025df565b5090565b7f4e487b7100000000000000000000000000000000000000000000000000000000600052601160045260246000fd5b6000819050919050565b600062002643826200262c565b91507fffffffffffffffffffffffffffffffffffffffffffffffffffffffffffffffff821415620026795762002678620025fd565b5b600182019050919050565b7f4e487b7100000000000000000000000000000000000000000000000000000000600052602260045260246000fd5b60006002820490506001821680620026cc57607f821691505b60208210811415620026e357620026e262002684565b5b50919050565b612a1380620026f96000396000f3fe60806040526004361061011f5760003560e01c8063ae73463e116100a0578063d23e848911610064578063d23e848914610421578063e80d7fec1461044a578063ee9bfc8c14610473578063f373c463146104b9578063f5a20a11146104e45761011f565b8063ae73463e14610328578063b32f36d514610353578063bc6b0ee41461037c578063c24521c6146103b9578063c41a360a146103e45761011f565b8063a7db555b116100e7578063a7db555b14610224578063a7eec44b1461024f578063a83ceea914610295578063ac2c10bb146102c0578063acc3a7ce146102eb5761011f565b8063022914a7146101245780631998aeef1461016157806334c40a2a1461017f57806375811d05146101aa57806376af73e2146101e7575b600080fd5b34801561013057600080fd5b5061014b60048036038101906101469190612202565b610518565b6040516101589190612248565b60405180910390f35b610169610530565b604051610176919061227e565b60405180910390f35b34801561018b57600080fd5b50610194610535565b6040516101a19190612248565b60405180910390f35b3480156101b657600080fd5b506101d160048036038101906101cc9190612202565b61057c565b6040516101de9190612248565b60405180910390f35b3480156101f357600080fd5b5061020e60048036038101906102099190612202565b610594565b60405161021b9190612248565b60405180910390f35b34801561023057600080fd5b506102396105ac565b6040516102469190612248565b60405180910390f35b34801561025b57600080fd5b50610276600480360381019061027191906122c5565b6105f3565b60405161028c9a9998979695949392919061239a565b60405180910390f35b3480156102a157600080fd5b506102aa61079e565b6040516102b79190612248565b60405180910390f35b3480156102cc57600080fd5b506102d56107a4565b6040516102e29190612248565b60405180910390f35b3480156102f757600080fd5b50610312600480360381019061030d91906122c5565b6107aa565b60405161031f919061259c565b60405180910390f35b34801561033457600080fd5b5061033d6109cb565b60405161034a9190612248565b60405180910390f35b34801561035f57600080fd5b5061037a6004803603810190610375919061271f565b610a12565b005b34801561038857600080fd5b506103a3600480360381019061039e91906122c5565b610e37565b6040516103b0919061259c565b60405180910390f35b3480156103c557600080fd5b506103ce6110a4565b6040516103db9190612248565b60405180910390f35b3480156103f057600080fd5b5061040b600480360381019061040691906122c5565b6110ad565b60405161041891906127e4565b60405180910390f35b34801561042d57600080fd5b50610448600480360381019061044391906122c5565b6110ed565b005b34801561045657600080fd5b50610471600480360381019061046c91906127ff565b611b37565b005b34801561047f57600080fd5b5061049a6004803603810190610495919061283f565b611d0f565b6040516104b09a9998979695949392919061239a565b60405180910390f35b3480156104c557600080fd5b506104ce611ed7565b6040516104db9190612248565b60405180910390f35b3480156104f057600080fd5b506104f9611ee5565b60405161050f9a9998979695949392919061239a565b60405180910390f35b60046020528060005260406000206000915090505481565b600090565b6000600560003373ffffffffffffffffffffffffffffffffffffffff1673ffffffffffffffffffffffffffffffffffffffff16815260200190815260200160002054905090565b60066020528060005260406000206000915090505481565b60056020528060005260406000206000915090505481565b6000600460003373ffffffffffffffffffffffffffffffffffffffff1673ffffffffffffffffffffffffffffffffffffffff16815260200190815260200160002054905090565b60026020528060005260406000206000915090508060000154908060010160009054906101000a900473ffffffffffffffffffffffffffffffffffffffff16908060010160149054906101000a900460ff1690806002018054610655906128ae565b80601f0160208091040260200160405190810160405280929190818152602001828054610681906128ae565b80156106ce5780601f106106a3576101008083540402835291602001916106ce565b820191906000526020600020905b8154815290600101906020018083116106b157829003601f168201915b5050505050908060030180546106e3906128ae565b80601f016020809104026020016040519081016040528092919081815260200182805461070f906128ae565b801561075c5780601f106107315761010080835404028352916020019161075c565b820191906000526020600020905b81548152906001019060200180831161073f57829003601f168201915b5050505050908060040154908060050154908060060160009054906101000a900460ff16908060060160019054906101000a900460ff1690806007015490508a565b60015481565b60005481565b6107b261207e565b6002600083815260200190815260200160002060405180610140016040529081600082015481526020016001820160009054906101000a900473ffffffffffffffffffffffffffffffffffffffff1673ffffffffffffffffffffffffffffffffffffffff1673ffffffffffffffffffffffffffffffffffffffff1681526020016001820160149054906101000a900460ff1615151515815260200160028201805461085c906128ae565b80601f0160208091040260200160405190810160405280929190818152602001828054610888906128ae565b80156108d55780601f106108aa576101008083540402835291602001916108d5565b820191906000526020600020905b8154815290600101906020018083116108b857829003601f168201915b505050505081526020016003820180546108ee906128ae565b80601f016020809104026020016040519081016040528092919081815260200182805461091a906128ae565b80156109675780601f1061093c57610100808354040283529160200191610967565b820191906000526020600020905b81548152906001019060200180831161094a57829003601f168201915b5050505050815260200160048201548152602001600582015481526020016006820160009054906101000a900460ff161515151581526020016006820160019054906101000a900460ff161515151581526020016007820154815250509050919050565b6000600660003373ffffffffffffffffffffffffffffffffffffffff1673ffffffffffffffffffffffffffffffffffffffff16815260200190815260200160002054905090565b60405180610140016040528060005481526020013373ffffffffffffffffffffffffffffffffffffffff16815260200160011515815260200187815260200186815260200185815260200184815260200160011515815260200183151581526020018281525060026000805481526020019081526020016000206000820151816000015560208201518160010160006101000a81548173ffffffffffffffffffffffffffffffffffffffff021916908373ffffffffffffffffffffffffffffffffffffffff16021790555060408201518160010160146101000a81548160ff0219169083151502179055506060820151816002019080519060200190610b199291906120ed565b506080820151816003019080519060200190610b369291906120ed565b5060a0820151816004015560c0820151816005015560e08201518160060160006101000a81548160ff0219169083151502179055506101008201518160060160016101000a81548160ff0219169083151502179055506101208201518160070155905050600080815480929190610bac9061290f565b91905055506001600460003373ffffffffffffffffffffffffffffffffffffffff1673ffffffffffffffffffffffffffffffffffffffff16815260200190815260200160002054610bfd9190612958565b600460003373ffffffffffffffffffffffffffffffffffffffff1673ffffffffffffffffffffffffffffffffffffffff16815260200190815260200160002081905550600360003373ffffffffffffffffffffffffffffffffffffffff1673ffffffffffffffffffffffffffffffffffffffff16815260200190815260200160002060405180610140016040528060005481526020013373ffffffffffffffffffffffffffffffffffffffff16815260200160011515815260200188815260200187815260200186815260200185815260200160011515815260200184151581526020018381525090806001815401808255809150506001900390600052602060002090600802016000909190919091506000820151816000015560208201518160010160006101000a81548173ffffffffffffffffffffffffffffffffffffffff021916908373ffffffffffffffffffffffffffffffffffffffff16021790555060408201518160010160146101000a81548160ff0219169083151502179055506060820151816002019080519060200190610d9b9291906120ed565b506080820151816003019080519060200190610db89291906120ed565b5060a0820151816004015560c0820151816005015560e08201518160060160006101000a81548160ff0219169083151502179055506101008201518160060160016101000a81548160ff0219169083151502179055506101208201518160070155505083600154610e299190612958565b600181905550505050505050565b610e3f61207e565b600360003373ffffffffffffffffffffffffffffffffffffffff1673ffffffffffffffffffffffffffffffffffffffff1681526020019081526020016000208281548110610e9057610e8f6129ae565b5b906000526020600020906008020160405180610140016040529081600082015481526020016001820160009054906101000a900473ffffffffffffffffffffffffffffffffffffffff1673ffffffffffffffffffffffffffffffffffffffff1673ffffffffffffffffffffffffffffffffffffffff1681526020016001820160149054906101000a900460ff16151515158152602001600282018054610f35906128ae565b80601f0160208091040260200160405190810160405280929190818152602001828054610f61906128ae565b8015610fae5780601f10610f8357610100808354040283529160200191610fae565b820191906000526020600020905b815481529060010190602001808311610f9157829003601f168201915b50505050508152602001600382018054610fc7906128ae565b80601f0160208091040260200160405190810160405280929190818152602001828054610ff3906128ae565b80156110405780601f1061101557610100808354040283529160200191611040565b820191906000526020600020905b81548152906001019060200180831161102357829003601f168201915b5050505050815260200160048201548152602001600582015481526020016006820160009054906101000a900460ff161515151581526020016006820160019054906101000a900460ff161515151581526020016007820154815250509050919050565b60008054905090565b60006002600083815260200190815260200160002060010160009054906101000a900473ffffffffffffffffffffffffffffffffffffffff169050919050565b60006002600083815260200190815260200160002060010160009054906101000a900473ffffffffffffffffffffffffffffffffffffffff16905060006002600084815260200190815260200160002060050154905080600660008473ffffffffffffffffffffffffffffffffffffffff1673ffffffffffffffffffffffffffffffffffffffff1681526020019081526020016000205461118e9190612958565b600660008473ffffffffffffffffffffffffffffffffffffffff1673ffffffffffffffffffffffffffffffffffffffff16815260200190815260200160002081905550336002600085815260200190815260200160002060010160006101000a81548173ffffffffffffffffffffffffffffffffffffffff021916908373ffffffffffffffffffffffffffffffffffffffff1602179055506000600260008581526020019081526020016000206005018190555060006002600085815260200190815260200160002060060160006101000a81548160ff0219169083151502179055506000600460008473ffffffffffffffffffffffffffffffffffffffff1673ffffffffffffffffffffffffffffffffffffffff16815260200190815260200160002054905060005b818110156114385784600360008673ffffffffffffffffffffffffffffffffffffffff1673ffffffffffffffffffffffffffffffffffffffff1681526020019081526020016000208281548110611312576113116129ae565b5b9060005260206000209060080201600001541415611425576000600360008673ffffffffffffffffffffffffffffffffffffffff1673ffffffffffffffffffffffffffffffffffffffff168152602001908152602001600020828154811061137d5761137c6129ae565b5b906000526020600020906008020160010160146101000a81548160ff0219169083151502179055506000600360008673ffffffffffffffffffffffffffffffffffffffff1673ffffffffffffffffffffffffffffffffffffffff16815260200190815260200160002082815481106113f8576113f76129ae565b5b906000526020600020906008020160060160006101000a81548160ff021916908315150217905550611438565b80806114309061290f565b9150506112b8565b506000600460003373ffffffffffffffffffffffffffffffffffffffff1673ffffffffffffffffffffffffffffffffffffffff16815260200190815260200160002054905060008060005b838110156115145787600360003373ffffffffffffffffffffffffffffffffffffffff1673ffffffffffffffffffffffffffffffffffffffff16815260200190815260200160002082815481106114dd576114dc6129ae565b5b90600052602060002090600802016000015414156115015760019250809150611514565b808061150c9061290f565b915050611483565b506000151582151514156119a957600360003373ffffffffffffffffffffffffffffffffffffffff1673ffffffffffffffffffffffffffffffffffffffff1681526020019081526020016000206040518061014001604052808981526020013373ffffffffffffffffffffffffffffffffffffffff168152602001600115158152602001600260008b815260200190815260200160002060020180546115b9906128ae565b80601f01602080910402602001604051908101604052809291908181526020018280546115e5906128ae565b80156116325780601f1061160757610100808354040283529160200191611632565b820191906000526020600020905b81548152906001019060200180831161161557829003601f168201915b50505050508152602001600260008b8152602001908152602001600020600301805461165d906128ae565b80601f0160208091040260200160405190810160405280929190818152602001828054611689906128ae565b80156116d65780601f106116ab576101008083540402835291602001916116d6565b820191906000526020600020905b8154815290600101906020018083116116b957829003601f168201915b50505050508152602001600260008b815260200190815260200160002060040154815260200160008152602001600015158152602001600260008b815260200190815260200160002060060160019054906101000a900460ff1615158152602001600260008b81526020019081526020016000206007015481525090806001815401808255809150506001900390600052602060002090600802016000909190919091506000820151816000015560208201518160010160006101000a81548173ffffffffffffffffffffffffffffffffffffffff021916908373ffffffffffffffffffffffffffffffffffffffff16021790555060408201518160010160146101000a81548160ff02191690831515021790555060608201518160020190805190602001906118079291906120ed565b5060808201518160030190805190602001906118249291906120ed565b5060a0820151816004015560c0820151816005015560e08201518160060160006101000a81548160ff0219169083151502179055506101008201518160060160016101000a81548160ff021916908315150217905550610120820151816007015550506001600460003373ffffffffffffffffffffffffffffffffffffffff1673ffffffffffffffffffffffffffffffffffffffff168152602001908152602001600020546118d39190612958565b600460003373ffffffffffffffffffffffffffffffffffffffff1673ffffffffffffffffffffffffffffffffffffffff1681526020019081526020016000208190555084600560003373ffffffffffffffffffffffffffffffffffffffff1673ffffffffffffffffffffffffffffffffffffffff168152602001908152602001600020546119619190612958565b600560003373ffffffffffffffffffffffffffffffffffffffff1673ffffffffffffffffffffffffffffffffffffffff16815260200190815260200160002081905550611b2e565b6001600360003373ffffffffffffffffffffffffffffffffffffffff1673ffffffffffffffffffffffffffffffffffffffff16815260200190815260200160002082815481106119fc576119fb6129ae565b5b906000526020600020906008020160010160146101000a81548160ff0219169083151502179055506000600360003373ffffffffffffffffffffffffffffffffffffffff1673ffffffffffffffffffffffffffffffffffffffff1681526020019081526020016000208281548110611a7757611a766129ae565b5b906000526020600020906008020160060160006101000a81548160ff02191690831515021790555084600560003373ffffffffffffffffffffffffffffffffffffffff1673ffffffffffffffffffffffffffffffffffffffff16815260200190815260200160002054611aea9190612958565b600560003373ffffffffffffffffffffffffffffffffffffffff1673ffffffffffffffffffffffffffffffffffffffff168152602001908152602001600020819055505b50505050505050565b80600260008481526020019081526020016000206005018190555060016002600084815260200190815260200160002060060160006101000a81548160ff02191690831515021790555060006002600084815260200190815260200160002060010160009054906101000a900473ffffffffffffffffffffffffffffffffffffffff1690506000600460008373ffffffffffffffffffffffffffffffffffffffff1673ffffffffffffffffffffffffffffffffffffffff16815260200190815260200160002054905060005b81811015611d085784600360008573ffffffffffffffffffffffffffffffffffffffff1673ffffffffffffffffffffffffffffffffffffffff1681526020019081526020016000208281548110611c5d57611c5c6129ae565b5b9060005260206000209060080201600001541415611cf5576001600360008573ffffffffffffffffffffffffffffffffffffffff1673ffffffffffffffffffffffffffffffffffffffff1681526020019081526020016000208281548110611cc857611cc76129ae565b5b906000526020600020906008020160060160006101000a81548160ff021916908315150217905550611d08565b8080611d009061290f565b915050611c03565b5050505050565b60036020528160005260406000208181548110611d2b57600080fd5b9060005260206000209060080201600091509150508060000154908060010160009054906101000a900473ffffffffffffffffffffffffffffffffffffffff16908060010160149054906101000a900460ff1690806002018054611d8e906128ae565b80601f0160208091040260200160405190810160405280929190818152602001828054611dba906128ae565b8015611e075780601f10611ddc57610100808354040283529160200191611e07565b820191906000526020600020905b815481529060010190602001808311611dea57829003601f168201915b505050505090806003018054611e1c906128ae565b80601f0160208091040260200160405190810160405280929190818152602001828054611e48906128ae565b8015611e955780601f10611e6a57610100808354040283529160200191611e95565b820191906000526020600020905b815481529060010190602001808311611e7857829003601f168201915b5050505050908060040154908060050154908060060160009054906101000a900460ff16908060060160019054906101000a900460ff1690806007015490508a565b600080600790508091505090565b60078060000154908060010160009054906101000a900473ffffffffffffffffffffffffffffffffffffffff16908060010160149054906101000a900460ff1690806002018054611f35906128ae565b80601f0160208091040260200160405190810160405280929190818152602001828054611f61906128ae565b8015611fae5780601f10611f8357610100808354040283529160200191611fae565b820191906000526020600020905b815481529060010190602001808311611f9157829003601f168201915b505050505090806003018054611fc3906128ae565b80601f0160208091040260200160405190810160405280929190818152602001828054611fef906128ae565b801561203c5780601f106120115761010080835404028352916020019161203c565b820191906000526020600020905b81548152906001019060200180831161201f57829003601f168201915b5050505050908060040154908060050154908060060160009054906101000a900460ff16908060060160019054906101000a900460ff1690806007015490508a565b60405180610140016040528060008152602001600073ffffffffffffffffffffffffffffffffffffffff16815260200160001515815260200160608152602001606081526020016000815260200160008152602001600015158152602001600015158152602001600081525090565b8280546120f9906128ae565b90600052602060002090601f01602090048101928261211b5760008555612162565b82601f1061213457805160ff1916838001178555612162565b82800160010185558215612162579182015b82811115612161578251825591602001919060010190612146565b5b50905061216f9190612173565b5090565b5b8082111561218c576000816000905550600101612174565b5090565b6000604051905090565b600080fd5b600080fd5b600073ffffffffffffffffffffffffffffffffffffffff82169050919050565b60006121cf826121a4565b9050919050565b6121df816121c4565b81146121ea57600080fd5b50565b6000813590506121fc816121d6565b92915050565b6000602082840312156122185761221761219a565b5b6000612226848285016121ed565b91505092915050565b6000819050919050565b6122428161222f565b82525050565b600060208201905061225d6000830184612239565b92915050565b60008115159050919050565b61227881612263565b82525050565b6000602082019050612293600083018461226f565b92915050565b6122a28161222f565b81146122ad57600080fd5b50565b6000813590506122bf81612299565b92915050565b6000602082840312156122db576122da61219a565b5b60006122e9848285016122b0565b91505092915050565b6122fb816121c4565b82525050565b600081519050919050565b600082825260208201905092915050565b60005b8381101561233b578082015181840152602081019050612320565b8381111561234a576000848401525b50505050565b6000601f19601f8301169050919050565b600061236c82612301565b612376818561230c565b935061238681856020860161231d565b61238f81612350565b840191505092915050565b6000610140820190506123b0600083018d612239565b6123bd602083018c6122f2565b6123ca604083018b61226f565b81810360608301526123dc818a612361565b905081810360808301526123f08189612361565b90506123ff60a0830188612239565b61240c60c0830187612239565b61241960e083018661226f565b61242761010083018561226f565b612435610120830184612239565b9b9a5050505050505050505050565b61244d8161222f565b82525050565b61245c816121c4565b82525050565b61246b81612263565b82525050565b600082825260208201905092915050565b600061248d82612301565b6124978185612471565b93506124a781856020860161231d565b6124b081612350565b840191505092915050565b6000610140830160008301516124d46000860182612444565b5060208301516124e76020860182612453565b5060408301516124fa6040860182612462565b50606083015184820360608601526125128282612482565b9150506080830151848203608086015261252c8282612482565b91505060a083015161254160a0860182612444565b5060c083015161255460c0860182612444565b5060e083015161256760e0860182612462565b5061010083015161257c610100860182612462565b50610120830151612591610120860182612444565b508091505092915050565b600060208201905081810360008301526125b681846124bb565b905092915050565b600080fd5b600080fd5b7f4e487b7100000000000000000000000000000000000000000000000000000000600052604160045260246000fd5b61260082612350565b810181811067ffffffffffffffff8211171561261f5761261e6125c8565b5b80604052505050565b6000612632612190565b905061263e82826125f7565b919050565b600067ffffffffffffffff82111561265e5761265d6125c8565b5b61266782612350565b9050602081019050919050565b82818337600083830152505050565b600061269661269184612643565b612628565b9050828152602081018484840111156126b2576126b16125c3565b5b6126bd848285612674565b509392505050565b600082601f8301126126da576126d96125be565b5b81356126ea848260208601612683565b91505092915050565b6126fc81612263565b811461270757600080fd5b50565b600081359050612719816126f3565b92915050565b60008060008060008060c0878903121561273c5761273b61219a565b5b600087013567ffffffffffffffff81111561275a5761275961219f565b5b61276689828a016126c5565b965050602087013567ffffffffffffffff8111156127875761278661219f565b5b61279389828a016126c5565b95505060406127a489828a016122b0565b94505060606127b589828a016122b0565b93505060806127c689828a0161270a565b92505060a06127d789828a016122b0565b9150509295509295509295565b60006020820190506127f960008301846122f2565b92915050565b600080604083850312156128165761281561219a565b5b6000612824858286016122b0565b9250506020612835858286016122b0565b9150509250929050565b600080604083850312156128565761285561219a565b5b6000612864858286016121ed565b9250506020612875858286016122b0565b9150509250929050565b7f4e487b7100000000000000000000000000000000000000000000000000000000600052602260045260246000fd5b600060028204905060018216806128c657607f821691505b602082108114156128da576128d961287f565b5b50919050565b7f4e487b7100000000000000000000000000000000000000000000000000000000600052601160045260246000fd5b600061291a8261222f565b91507fffffffffffffffffffffffffffffffffffffffffffffffffffffffffffffffff82141561294d5761294c6128e0565b5b600182019050919050565b60006129638261222f565b915061296e8361222f565b9250827fffffffffffffffffffffffffffffffffffffffffffffffffffffffffffffffff038211156129a3576129a26128e0565b5b828201905092915050565b7f4e487b7100000000000000000000000000000000000000000000000000000000600052603260045260246000fdfea264697066735822122003e2e31b11450a7e3b15dcc3464b2d312498631f3f26c382cb3caabd9bc4810764736f6c634300080a0033",
  "immutableReferences": {},
  "source": "// SPDX-License-Identifier: MIT\npragma solidity 0.8.10;\n\ncontract Auction {\n\n  struct Water {\n    uint id;\n    address owner;\n    bool active;\n    string waterSource;\n    string waterLocation;\n    uint amount;\n    uint price;\n    bool forSale;\n    bool rightType;\n    uint leaseLength;\n  }\n\n  uint public rightsCount = 0;\n  uint public totalAcres = 0;\n\n   //uint == ID\n   mapping (uint => Water) public water;\n   mapping (address => Water[]) public ownership;\n   mapping (address => uint) public owners;\n   mapping (address => uint) public purchaseTotal;\n   mapping (address => uint) public salesTotal;\n\n   Water public newWater;\n\n\n  event LogBid(address indexed _highestBidder, uint256 _highestBid);\n  event LogWithdrawal(address indexed _withdrawer, uint256 amount);\n\n// Assign values to some properties during deployment\n constructor () {\n\n   water[0] = Water(0, 0xc2ab56188cdFC64f19fb9DE3612ff50f11B45D22, true, \"Colorado\", \"Winter Park\", 150, 160, false, true, 0);\n   rightsCount++;\n\n   water[1] = Water(1, msg.sender, true, \"Big Thompson\", \"Northern Water\", 275, 500, true, true, 0);\n   rightsCount++;\n\n   water[2] = Water(2, 0xc2ab56188cdFC64f19fb9DE3612ff50f11B45D22, true, \"South Platte\", \"Mount Werner\", 25, 50, true, false, 12);\n   rightsCount++;\n\n   water[3] = Water(3, 0x8356797B7c6CaAfE80d4cd3A308E6C00dBB7bD00, true, \"Green\", \"Donala\", 350, 1500, true, false, 36);\n   rightsCount++;\n\n   water[4] = Water(4, msg.sender, true, \"Yampa\", \"Donala\", 300, 270, false, true, 0);\n   rightsCount++;\n\n   water[5] = Water(5, 0x8356797B7c6CaAfE80d4cd3A308E6C00dBB7bD00, true, \"Dolores\", \"Centennial\", 650, 2400, false, false, 12);\n   rightsCount++;\n\n   water[6] = Water(6, 0x8356797B7c6CaAfE80d4cd3A308E6C00dBB7bD00, true, \"Big Thompson\", \"St. Charles Mesa\", 85, 400, false, true, 0);\n   rightsCount++;\n\n   water[7] = Water(7, msg.sender, true, \"Gunnison\", \"Widefield\", 115, 90, false, false, 36);\n   rightsCount++;\n\n   //water[8] = Water(8, 0x8356797B7c6CaAfE80d4cd3A308E6C00dBB7bD00, true, \"Blue\", \"Donala\", 45, 110, false, false, 18);\n   //rightsCount++;\n\n   //water[9] = Water(9, 0x6BCa5F02dCF3eABca074DDE57d3d1BB5173A94F5, true, \"Arkansas\", \"East Cherry Creek Valley\", 650, 2400, true, true, 0);\n   //rightsCount++;\n\n   //water[10] = Water(10, 0x8356797B7c6CaAfE80d4cd3A308E6C00dBB7bD00, true, \"Taylor\", \"Eagle River\", 45, 110, false, true, 0);\n   //rightsCount++;\n\n   //water[11] = Water(11, 0x8356797B7c6CaAfE80d4cd3A308E6C00dBB7bD00, true, \"Clear Creek\", \"Grand\", 45, 110, false, false, 48);\n   //rightsCount++;\n\n   //water[12] = Water(12, msg.sender, true, \"Mancos\", \"Parker\", 300, 270, false, false, 13);\n   //rightsCount++;\n\n   owners[msg.sender] = 3;\n   owners[0xc2ab56188cdFC64f19fb9DE3612ff50f11B45D22] = 2;\n   //owners[0x6BCa5F02dCF3eABca074DDE57d3d1BB5173A94F5] = 4;\n   owners[0x8356797B7c6CaAfE80d4cd3A308E6C00dBB7bD00] = 3;\n\n   ownership[0xc2ab56188cdFC64f19fb9DE3612ff50f11B45D22].push(Water(0, 0xc2ab56188cdFC64f19fb9DE3612ff50f11B45D22, true, \"Colorado\", \"Winter Park\", 150, 0, false, true, 0));\n   ownership[msg.sender].push(Water(1, msg.sender, true, \"Big Thompson\", \"Northern Water\", 275, 500, true, true, 0));\n   ownership[0xc2ab56188cdFC64f19fb9DE3612ff50f11B45D22].push(Water(2, 0xc2ab56188cdFC64f19fb9DE3612ff50f11B45D22, true, \"South Platte\", \"Mount Werner\", 25, 50, true, false, 12));\n   ownership[0x8356797B7c6CaAfE80d4cd3A308E6C00dBB7bD00].push(Water(3, 0x8356797B7c6CaAfE80d4cd3A308E6C00dBB7bD00, true, \"Green\", \"Donala\", 350, 1500, true, false, 36));\n   ownership[msg.sender].push(Water(4, msg.sender, true, \"Yampa\", \"Donala\", 300, 0, false, true, 0));\n   ownership[0x8356797B7c6CaAfE80d4cd3A308E6C00dBB7bD00].push(Water(5, 0x8356797B7c6CaAfE80d4cd3A308E6C00dBB7bD00, true, \"Dolores\", \"Centennial\", 650, 2400, true, false, 12));\n   ownership[0x8356797B7c6CaAfE80d4cd3A308E6C00dBB7bD00].push(Water(6, 0x8356797B7c6CaAfE80d4cd3A308E6C00dBB7bD00, true, \"Big Thompson\", \"St. Charles Mesa\", 85, 400, true, true, 0));\n   ownership[msg.sender].push(Water(7, msg.sender, true, \"Gunnison\", \"Widefield\", 115, 90, false, false, 36));\n   //ownership[0x8356797B7c6CaAfE80d4cd3A308E6C00dBB7bD00].push(Water(8, 0x8356797B7c6CaAfE80d4cd3A308E6C00dBB7bD00, true, \"Blue\", \"Donala\", 45, 110, false, false, 18));\n   //ownership[0x6BCa5F02dCF3eABca074DDE57d3d1BB5173A94F5].push(Water(9, 0x6BCa5F02dCF3eABca074DDE57d3d1BB5173A94F5, true, \"Arkansas\", \"East Cherry Creek Valley\", 650, 2400, true, true, 0));\n   //ownership[0x8356797B7c6CaAfE80d4cd3A308E6C00dBB7bD00].push(Water(10, 0x8356797B7c6CaAfE80d4cd3A308E6C00dBB7bD00, true, \"Taylor\", \"Eagle River\", 45, 110, false, true, 0));\n   //ownership[0x8356797B7c6CaAfE80d4cd3A308E6C00dBB7bD00].push(Water(11, 0x8356797B7c6CaAfE80d4cd3A308E6C00dBB7bD00, true, \"Clear Creek\", \"Grand\", 45, 110, false, false, 48));\n   //ownership[msg.sender].push(Water(12, msg.sender, true, \"Mancos\", \"Parker\", 300, 270, false, false, 13));\n\n   totalAcres = 1950;\n\n }\n\n\n\n function getOwnerAssets(uint id) view public returns (Water memory) {\n   return ownership[msg.sender][id];\n }\n\n function getOwnerNumber () view public returns (uint) {\n   return owners[msg.sender];\n }\n\n function getOwnerPurchases () view public returns (uint) {\n   return purchaseTotal[msg.sender];\n }\n\n function getOwnerSale () view public returns (uint) {\n   return salesTotal[msg.sender];\n }\n\n\nfunction addNewAsset (string memory source, string memory loc, uint amount, uint price, bool rightType, uint leaseLength) public {\n\n  water[rightsCount] = Water(rightsCount, msg.sender, true, source, loc, amount, price, true, rightType, leaseLength);\n  rightsCount++;\n\n  owners[msg.sender] = owners[msg.sender] + 1;\n\n  ownership[msg.sender].push(Water(rightsCount, msg.sender, true, source, loc, amount, price, true, rightType, leaseLength));\n\n  totalAcres = totalAcres + amount;\n\n}\n\n function bid() public payable returns (bool) {\n\n }\n\n function getRight(uint index) view public returns (Water memory) {\n   return water[index];\n }\n\n function getSaleCount() view public returns (uint) {\n    return rightsCount;\n  }\n\n /*function makeBid() public payable notOwner() returns (bool) {\n   uint256 bidAmount = bids[msg.sender] + msg.value;\n   require(bidAmount > highestBid.bidAmount, 'Bid error: Make a higher Bid.');\n\n   highestBid.bidder = msg.sender;\n   highestBid.bidAmount = bidAmount;\n   bids[msg.sender] = bidAmount;\n   emit LogBid(msg.sender, bidAmount);\n   return true;\n }*/\n\n /*function withdraw() public notOngoing() isOwner() returns (bool) {\n   uint256 amount = highestBid.bidAmount;\n   bids[highestBid.bidder] = 0;\n   highestBid.bidder = address(0);\n   highestBid.bidAmount = 0;\n\n   (bool success, ) = payable(owner).call{ value: amount }(\"\");\n   require(success, 'Withdrawal failed.');\n   emit LogWithdrawal(msg.sender, amount);\n   return true;\n }*/\n\n\n\n\nfunction listForSale(uint id, uint price) public {\n\n\n  water[id].price = price;\n  water[id].forSale = true;\n\n  address oldOwner = water[id].owner;\n\n  uint oldOwnerLength = owners[oldOwner];\n\n  for (uint i=0; i<oldOwnerLength; i++) {\n     if (ownership[oldOwner][i].id == id) {\n       ownership[oldOwner][i].forSale=true;\n       break;\n     }\n   }\n}\n\n\n\n//TO-DO:  Require ForSale == TRUE\n function transferOwnership(uint id) public {\n\n\n   address oldOwner = water[id].owner;\n   uint payPrice = water[id].price;\n\n   salesTotal[oldOwner] = salesTotal[oldOwner] + payPrice;\n\n   water[id].owner = msg.sender;\n   water[id].price = 0;\n   water[id].forSale = false;\n\n   uint oldOwnerLength = owners[oldOwner];\n\n   for (uint i=0; i<oldOwnerLength; i++) {\n      if (ownership[oldOwner][i].id == id) {\n        ownership[oldOwner][i].active=false;\n        ownership[oldOwner][i].forSale=false;\n        break;\n      }\n    }\n\n    uint newOwnerLength = owners[msg.sender];\n    bool isFound = false;\n    uint foundIndex = 0;\n\n    for (uint i=0; i<newOwnerLength; i++) {\n       if (ownership[msg.sender][i].id == id) {\n         isFound=true;\n         foundIndex = i;\n         break;\n       }\n     }\n\n    if (isFound == false){\n   ownership[msg.sender].push(Water(id, msg.sender, true, water[id].waterSource, water[id].waterLocation, water[id].amount, 0, false, water[id].rightType, water[id].leaseLength));\n   owners[msg.sender] = owners[msg.sender] + 1;\n   purchaseTotal[msg.sender] = purchaseTotal[msg.sender] + payPrice;\n  }\n\n  else {\n    ownership[msg.sender][foundIndex].active = true;\n    ownership[msg.sender][foundIndex].forSale = false;\n    purchaseTotal[msg.sender] = purchaseTotal[msg.sender] + payPrice;\n  }\n\n }\n\n function fetchHighestBid() public view returns (uint id) {\n   uint _highestBid = 7;\n   return _highestBid;\n }\n\n function getOwner(uint index) public view returns (address) {\n   return water[index].owner;\n }\n}\n",
  "sourcePath": "/Users/reuben/Desktop/work/lux/demo/dashboard/git/luxdashboard.github.io/contracts/Auction.sol",
  "compiler": {
    "name": "solc",
    "version": "0.8.10+commit.fc410830.Emscripten.clang"
  },
  "schemaVersion": "3.4.4",
  "updatedAt": "2022-01-19T18:41:03.188Z",
  "networkType": "ethereum",
  "devdoc": {
    "kind": "dev",
    "methods": {},
    "version": 1
  },
  "userdoc": {
    "kind": "user",
    "methods": {},
    "version": 1
  }
}